{
  "contractName": "CDPer",
  "abi": [
    {
      "constant": false,
      "inputs": [],
      "name": "stop",
      "outputs": [],
      "payable": false,
      "stateMutability": "nonpayable",
      "type": "function"
    },
    {
      "constant": true,
      "inputs": [],
      "name": "skr",
      "outputs": [
        {
          "name": "",
          "type": "address"
        }
      ],
      "payable": false,
      "stateMutability": "view",
      "type": "function"
    },
    {
      "constant": true,
      "inputs": [],
      "name": "gov",
      "outputs": [
        {
          "name": "",
          "type": "address"
        }
      ],
      "payable": false,
      "stateMutability": "view",
      "type": "function"
    },
    {
      "constant": false,
      "inputs": [
        {
          "name": "owner_",
          "type": "address"
        }
      ],
      "name": "setOwner",
      "outputs": [],
      "payable": false,
      "stateMutability": "nonpayable",
      "type": "function"
    },
    {
      "constant": true,
      "inputs": [],
      "name": "tub",
      "outputs": [
        {
          "name": "",
          "type": "address"
        }
      ],
      "payable": false,
      "stateMutability": "view",
      "type": "function"
    },
    {
      "constant": true,
      "inputs": [],
      "name": "otc",
      "outputs": [
        {
          "name": "",
          "type": "address"
        }
      ],
      "payable": false,
      "stateMutability": "view",
      "type": "function"
    },
    {
      "constant": true,
      "inputs": [],
      "name": "feed",
      "outputs": [
        {
          "name": "",
          "type": "address"
        }
      ],
      "payable": false,
      "stateMutability": "view",
      "type": "function"
    },
    {
      "constant": true,
      "inputs": [],
      "name": "slippage",
      "outputs": [
        {
          "name": "",
          "type": "uint256"
        }
      ],
      "payable": false,
      "stateMutability": "view",
      "type": "function"
    },
    {
      "constant": true,
      "inputs": [],
      "name": "minDai",
      "outputs": [
        {
          "name": "",
          "type": "uint256"
        }
      ],
      "payable": false,
      "stateMutability": "view",
      "type": "function"
    },
    {
      "constant": true,
      "inputs": [],
      "name": "stopped",
      "outputs": [
        {
          "name": "",
          "type": "bool"
        }
      ],
      "payable": false,
      "stateMutability": "view",
      "type": "function"
    },
    {
      "constant": false,
      "inputs": [
        {
          "name": "authority_",
          "type": "address"
        }
      ],
      "name": "setAuthority",
      "outputs": [],
      "payable": false,
      "stateMutability": "nonpayable",
      "type": "function"
    },
    {
      "constant": true,
      "inputs": [],
      "name": "gem",
      "outputs": [
        {
          "name": "",
          "type": "address"
        }
      ],
      "payable": false,
      "stateMutability": "view",
      "type": "function"
    },
    {
      "constant": true,
      "inputs": [],
      "name": "liquidationPriceWad",
      "outputs": [
        {
          "name": "",
          "type": "uint256"
        }
      ],
      "payable": false,
      "stateMutability": "view",
      "type": "function"
    },
    {
      "constant": true,
      "inputs": [],
      "name": "owner",
      "outputs": [
        {
          "name": "",
          "type": "address"
        }
      ],
      "payable": false,
      "stateMutability": "view",
      "type": "function"
    },
    {
      "constant": false,
      "inputs": [],
      "name": "start",
      "outputs": [],
      "payable": false,
      "stateMutability": "nonpayable",
      "type": "function"
    },
    {
      "constant": true,
      "inputs": [],
      "name": "authority",
      "outputs": [
        {
          "name": "",
          "type": "address"
        }
      ],
      "payable": false,
      "stateMutability": "view",
      "type": "function"
    },
    {
      "constant": true,
      "inputs": [],
      "name": "minETH",
      "outputs": [
        {
          "name": "",
          "type": "uint256"
        }
      ],
      "payable": false,
      "stateMutability": "view",
      "type": "function"
    },
    {
      "constant": true,
      "inputs": [],
      "name": "dai",
      "outputs": [
        {
          "name": "",
          "type": "address"
        }
      ],
      "payable": false,
      "stateMutability": "view",
      "type": "function"
    },
    {
      "inputs": [],
      "payable": false,
      "stateMutability": "nonpayable",
      "type": "constructor"
    },
    {
      "anonymous": false,
      "inputs": [
        {
          "indexed": true,
          "name": "authority",
          "type": "address"
        }
      ],
      "name": "LogSetAuthority",
      "type": "event"
    },
    {
      "anonymous": false,
      "inputs": [
        {
          "indexed": true,
          "name": "owner",
          "type": "address"
        }
      ],
      "name": "LogSetOwner",
      "type": "event"
    },
    {
      "anonymous": true,
      "inputs": [
        {
          "indexed": true,
          "name": "sig",
          "type": "bytes4"
        },
        {
          "indexed": true,
          "name": "guy",
          "type": "address"
        },
        {
          "indexed": true,
          "name": "foo",
          "type": "bytes32"
        },
        {
          "indexed": true,
          "name": "bar",
          "type": "bytes32"
        },
        {
          "indexed": false,
          "name": "wad",
          "type": "uint256"
        },
        {
          "indexed": false,
          "name": "fax",
          "type": "bytes"
        }
      ],
      "name": "LogNote",
      "type": "event"
    },
    {
      "constant": false,
      "inputs": [],
      "name": "init",
      "outputs": [],
      "payable": false,
      "stateMutability": "nonpayable",
      "type": "function"
    },
    {
      "constant": false,
      "inputs": [],
      "name": "tubParamUpdate",
      "outputs": [],
      "payable": false,
      "stateMutability": "nonpayable",
      "type": "function"
    },
    {
      "constant": false,
      "inputs": [],
      "name": "createAndJoinCDP",
      "outputs": [
        {
          "name": "id",
          "type": "bytes32"
        }
      ],
      "payable": true,
      "stateMutability": "payable",
      "type": "function"
    },
    {
      "constant": false,
      "inputs": [],
      "name": "createAndJoinCDPAllDai",
      "outputs": [
        {
          "name": "id",
          "type": "bytes32"
        }
      ],
      "payable": false,
      "stateMutability": "nonpayable",
      "type": "function"
    },
    {
      "constant": false,
      "inputs": [
        {
          "name": "amount",
          "type": "uint256"
        }
      ],
      "name": "createAndJoinCDPDai",
      "outputs": [
        {
          "name": "id",
          "type": "bytes32"
        }
      ],
      "payable": false,
      "stateMutability": "nonpayable",
      "type": "function"
    },
    {
      "constant": false,
      "inputs": [],
      "name": "createCDPLeveraged",
      "outputs": [
        {
          "name": "id",
          "type": "bytes32"
        }
      ],
      "payable": true,
      "stateMutability": "payable",
      "type": "function"
    },
    {
      "constant": false,
      "inputs": [],
      "name": "createCDPLeveragedAllDai",
      "outputs": [
        {
          "name": "id",
          "type": "bytes32"
        }
      ],
      "payable": false,
      "stateMutability": "nonpayable",
      "type": "function"
    },
    {
      "constant": false,
      "inputs": [
        {
          "name": "amount",
          "type": "uint256"
        }
      ],
      "name": "createCDPLeveragedDai",
      "outputs": [
        {
          "name": "id",
          "type": "bytes32"
        }
      ],
      "payable": false,
      "stateMutability": "nonpayable",
      "type": "function"
    },
    {
      "constant": false,
      "inputs": [
        {
          "name": "_id",
          "type": "uint256"
        }
      ],
      "name": "shutForETH",
      "outputs": [],
      "payable": false,
      "stateMutability": "nonpayable",
      "type": "function"
    },
    {
      "constant": false,
      "inputs": [
        {
          "name": "_id",
          "type": "uint256"
        }
      ],
      "name": "shutForDai",
      "outputs": [],
      "payable": false,
      "stateMutability": "nonpayable",
      "type": "function"
    },
    {
      "constant": false,
      "inputs": [
        {
          "name": "id",
          "type": "uint256"
        }
      ],
      "name": "giveMeCDP",
      "outputs": [],
      "payable": false,
      "stateMutability": "nonpayable",
      "type": "function"
    },
    {
      "constant": false,
      "inputs": [
        {
          "name": "token",
          "type": "address"
        }
      ],
      "name": "giveMeToken",
      "outputs": [],
      "payable": false,
      "stateMutability": "nonpayable",
      "type": "function"
    },
    {
      "constant": false,
      "inputs": [],
      "name": "giveMeETH",
      "outputs": [],
      "payable": false,
      "stateMutability": "nonpayable",
      "type": "function"
    },
    {
      "constant": false,
      "inputs": [],
      "name": "destroy",
      "outputs": [],
      "payable": false,
      "stateMutability": "nonpayable",
      "type": "function"
    },
    {
      "constant": false,
      "inputs": [
        {
          "name": "slip",
          "type": "uint256"
        }
      ],
      "name": "setSlippage",
      "outputs": [],
      "payable": false,
      "stateMutability": "nonpayable",
      "type": "function"
    },
    {
      "constant": false,
      "inputs": [
        {
          "name": "wad",
          "type": "uint256"
        }
      ],
      "name": "setLiqPrice",
      "outputs": [],
      "payable": false,
      "stateMutability": "nonpayable",
      "type": "function"
    },
    {
      "constant": false,
      "inputs": [
        {
          "name": "wad",
          "type": "uint256"
        }
      ],
      "name": "setMinETH",
      "outputs": [],
      "payable": false,
      "stateMutability": "nonpayable",
      "type": "function"
    },
    {
      "constant": false,
      "inputs": [
        {
          "name": "wad",
          "type": "uint256"
        }
      ],
      "name": "setMinDai",
      "outputs": [],
      "payable": false,
      "stateMutability": "nonpayable",
      "type": "function"
    },
    {
      "constant": false,
      "inputs": [
        {
          "name": "_tub",
          "type": "address"
        }
      ],
      "name": "setTub",
      "outputs": [],
      "payable": false,
      "stateMutability": "nonpayable",
      "type": "function"
    },
    {
      "constant": false,
      "inputs": [
        {
          "name": "_dai",
          "type": "address"
        }
      ],
      "name": "setDai",
      "outputs": [],
      "payable": false,
      "stateMutability": "nonpayable",
      "type": "function"
    },
    {
      "constant": false,
      "inputs": [
        {
          "name": "_skr",
          "type": "address"
        }
      ],
      "name": "setSkr",
      "outputs": [],
      "payable": false,
      "stateMutability": "nonpayable",
      "type": "function"
    },
    {
      "constant": false,
      "inputs": [
        {
          "name": "_gov",
          "type": "address"
        }
      ],
      "name": "setGov",
      "outputs": [],
      "payable": false,
      "stateMutability": "nonpayable",
      "type": "function"
    },
    {
      "constant": false,
      "inputs": [
        {
          "name": "_gem",
          "type": "address"
        }
      ],
      "name": "setGem",
      "outputs": [],
      "payable": false,
      "stateMutability": "nonpayable",
      "type": "function"
    },
    {
      "constant": false,
      "inputs": [
        {
          "name": "_feed",
          "type": "address"
        }
      ],
      "name": "setFeed",
      "outputs": [],
      "payable": false,
      "stateMutability": "nonpayable",
      "type": "function"
    },
    {
      "constant": false,
      "inputs": [
        {
          "name": "_otc",
          "type": "address"
        }
      ],
      "name": "setOTC",
      "outputs": [],
      "payable": false,
      "stateMutability": "nonpayable",
      "type": "function"
    }
  ],
  "bytecode": "0x6060604052670dbd2fc137a3000060025560038054600160a060020a031990811673a71937147b55deb8a530c7229c442fd3f31b7db21790915560048054821673c4375b7de8af5a38a93548eb8453a498222c4ff217905560058054821673f4d791139ce033ad35db2b2201435fad668b1b6417905560068054821673aaf64bfcc32d0f15873a02163e7e500671a4ffcd17905560078054821673d0a1e359811322d97991e03f863a0c30c2cf029c17905560088054821673a944bd4b25c9f186a846fd5668941aa3d3b8425f17905560098054909116738cf1cab422a0b6b554077a361f8419cdf122a9f91790556014670de0b6b3a764000004600a556802b5e3af16b1880000600b55681158e460913d000000600c55341561012257600080fd5b60018054600160a060020a03191633600160a060020a03169081179091557fce241d7ca1f669fee44b6fc00b8eba2df3bb514eed0f6f668f8f89096e81ed9460405160405180910390a261290b8061017b6000396000f3006060604052600436106101f55763ffffffff60e060020a60003504166303d3a6b781146101fa57806307da68f5146102125780630a9626ba146102255780630f8a771e1461023b578063127f2d2c1461026a57806312d43a511461028057806313af403514610293578063147bd90d146102b257806325529bac146102d15780632a66ede5146102f057806334e70cc21461030357806336b61e3c1461031657806337a7b7d8146103295780633e032a3b1461033c5780634344ef9c146103615780634e7073f11461038057806355b775ea146103965780635cf28fa4146103b55780635e1a01c3146103c85780636092e55b146103db578063626cae4d146103f1578063629e89a01461041057806375f12b211461042657806377dda5331461044d5780637a9e5e4b1461046c5780637bd2bea71461048b5780637e9f16321461049e57806383197ef0146104bd57806388cf6648146104d05780638b4d56de146104e35780638da5cb5b146104f9578063a42533c81461050c578063be9a65551461051f578063bf7e214f14610532578063cfad57a214610545578063d9bdd6fa14610564578063dcff2f7614610577578063df67d82d1461057f578063dfe7118314610592578063e1c7392a1461059a578063f0fa55a9146105ad578063f4b9fa75146105c3578063f82a7496146105d6575b600080fd5b341561020557600080fd5b6102106004356105ec565b005b341561021d57600080fd5b61021061099a565b341561023057600080fd5b610210600435610a39565b341561024657600080fd5b61024e610a5f565b604051600160a060020a03909116815260200160405180910390f35b341561027557600080fd5b610210600435610a6e565b341561028b57600080fd5b61024e610eef565b341561029e57600080fd5b610210600160a060020a0360043516610efe565b34156102bd57600080fd5b610210600160a060020a0360043516610f70565b34156102dc57600080fd5b610210600160a060020a0360043516610fb3565b34156102fb57600080fd5b610210610ff6565b341561030e57600080fd5b61024e611056565b341561032157600080fd5b61024e611065565b341561033457600080fd5b61024e611074565b341561034757600080fd5b61034f611083565b60405190815260200160405180910390f35b341561036c57600080fd5b610210600160a060020a0360043516611089565b341561038b57600080fd5b6102106004356110cc565b34156103a157600080fd5b610210600160a060020a03600435166110f2565b34156103c057600080fd5b61034f611135565b34156103d357600080fd5b61034f61113b565b34156103e657600080fd5b61034f6004356111b3565b34156103fc57600080fd5b610210600160a060020a0360043516611417565b341561041b57600080fd5b61021060043561145a565b341561043157600080fd5b610439611480565b604051901515815260200160405180910390f35b341561045857600080fd5b610210600160a060020a0360043516611490565b341561047757600080fd5b610210600160a060020a03600435166114d3565b341561049657600080fd5b61024e611545565b34156104a957600080fd5b610210600160a060020a0360043516611554565b34156104c857600080fd5b61021061163e565b34156104db57600080fd5b61034f611683565b34156104ee57600080fd5b61034f600435611689565b341561050457600080fd5b61024e6118c2565b341561051757600080fd5b6102106118d1565b341561052a57600080fd5b61021061195d565b341561053d57600080fd5b61024e6119f6565b341561055057600080fd5b610210600160a060020a0360043516611a05565b341561056f57600080fd5b61034f611a48565b61034f611abb565b341561058a57600080fd5b61034f611baa565b61034f611bb0565b34156105a557600080fd5b610210611d2e565b34156105b857600080fd5b6102106004356121f4565b34156105ce57600080fd5b61024e61222e565b34156105e157600080fd5b61021060043561223d565b60008060008061060833600035600160e060020a0319166122c8565b151561061357600080fd5b60015460a060020a900460ff161561062a57600080fd5b600354859450600160a060020a031663f7c8d6348560405160e060020a63ffffffff84160281526004810191909152602401602060405180830381600087803b151561067557600080fd5b5af1151561068257600080fd5b5050506040518051935050600083111561071b57600454600160a060020a03166323b872dd33308660405160e060020a63ffffffff8616028152600160a060020a0393841660048201529190921660248201526044810191909152606401602060405180830381600087803b15156106f957600080fd5b5af1151561070657600080fd5b50505060405180519050151561071b57600080fd5b600354600160a060020a0316631f3634ed8560405160e060020a63ffffffff84160281526004810191909152602401602060405180830381600087803b151561076357600080fd5b5af1151561077057600080fd5b5050506040518051600354909350600160a060020a0316905063b84d21068560405160e060020a63ffffffff84160281526004810191909152602401600060405180830381600087803b15156107c557600080fd5b5af115156107d257600080fd5b5050600354600160a060020a0316905063454a2ab38360405160e060020a63ffffffff84160281526004810191909152602401602060405180830381600087803b151561081e57600080fd5b5af1151561082b57600080fd5b5050506040518051600354909250600160a060020a03169050637f8661a18360405160e060020a63ffffffff84160281526004810191909152602401600060405180830381600087803b151561088057600080fd5b5af1151561088d57600080fd5b5050600754600160a060020a03169050632e1a7d4d61090783836370a082313060405160e060020a63ffffffff8416028152600160a060020a039091166004820152602401602060405180830381600087803b15156108eb57600080fd5b5af115156108f857600080fd5b505050604051805190506123af565b60405160e060020a63ffffffff84160281526004810191909152602401600060405180830381600087803b151561093d57600080fd5b5af1151561094a57600080fd5b50505033600160a060020a03166108fc61096e8330600160a060020a0316316123af565b9081150290604051600060405180830381858888f19350505050151561099357600080fd5b5050505050565b6109b033600035600160e060020a0319166122c8565b15156109bb57600080fd5b600435602435808233600160a060020a031660008035600160e060020a0319169034903660405183815260406020820181815290820183905260608201848480828437820191505094505050505060405180910390a450506001805474ff0000000000000000000000000000000000000000191660a060020a179055565b610a4f33600035600160e060020a0319166122c8565b1515610a5a57600080fd5b600c55565b600554600160a060020a031681565b600080600080600080610a8d33600035600160e060020a0319166122c8565b1515610a9857600080fd5b60015460a060020a900460ff1615610aaf57600080fd5b600354879650600160a060020a031663f7c8d6348760405160e060020a63ffffffff84160281526004810191909152602401602060405180830381600087803b1515610afa57600080fd5b5af11515610b0757600080fd5b50505060405180519550506000851115610ba057600454600160a060020a03166323b872dd33308860405160e060020a63ffffffff8616028152600160a060020a0393841660048201529190921660248201526044810191909152606401602060405180830381600087803b1515610b7e57600080fd5b5af11515610b8b57600080fd5b505050604051805190501515610ba057600080fd5b600354600160a060020a0316631f3634ed8760405160e060020a63ffffffff84160281526004810191909152602401602060405180830381600087803b1515610be857600080fd5b5af11515610bf557600080fd5b5050506040518051600354909550600160a060020a0316905063b84d21068760405160e060020a63ffffffff84160281526004810191909152602401600060405180830381600087803b1515610c4a57600080fd5b5af11515610c5757600080fd5b5050600354600160a060020a0316905063454a2ab38560405160e060020a63ffffffff84160281526004810191909152602401602060405180830381600087803b1515610ca357600080fd5b5af11515610cb057600080fd5b5050506040518051600354909450600160a060020a03169050637f8661a18560405160e060020a63ffffffff84160281526004810191909152602401600060405180830381600087803b1515610d0557600080fd5b5af11515610d1257600080fd5b5050600854600160a060020a031690506357de26a46040518163ffffffff1660e060020a028152600401602060405180830381600087803b1515610d5557600080fd5b5af11515610d6257600080fd5b5050506040518051600954600754919450600160a060020a039081169250630621b4f69116610dd086826370a082313060405160e060020a63ffffffff8416028152600160a060020a039091166004820152602401602060405180830381600087803b15156108eb57600080fd5b600454600254600160a060020a0390911690610dff90670de0b6b3a764000003610dfa8a8a6123c8565b6123c8565b60405160e060020a63ffffffff8716028152600160a060020a0394851660048201526024810193909352921660448201526064810191909152608401602060405180830381600087803b1515610e5457600080fd5b5af11515610e6157600080fd5b5050506040518051600454909250600160a060020a0316905063a9059cbb338360405160e060020a63ffffffff8516028152600160a060020a0390921660048301526024820152604401602060405180830381600087803b1515610ec457600080fd5b5af11515610ed157600080fd5b505050604051805190501515610ee657600080fd5b50505050505050565b600654600160a060020a031681565b610f1433600035600160e060020a0319166122c8565b1515610f1f57600080fd5b60018054600160a060020a031916600160a060020a038381169190911791829055167fce241d7ca1f669fee44b6fc00b8eba2df3bb514eed0f6f668f8f89096e81ed9460405160405180910390a250565b610f8633600035600160e060020a0319166122c8565b1515610f9157600080fd5b60058054600160a060020a031916600160a060020a0392909216919091179055565b610fc933600035600160e060020a0319166122c8565b1515610fd457600080fd5b60038054600160a060020a031916600160a060020a0392909216919091179055565b61100c33600035600160e060020a0319166122c8565b151561101757600080fd5b33600160a060020a03166108fc30600160a060020a0316319081150290604051600060405180830381858888f19350505050151561105457600080fd5b565b600354600160a060020a031681565b600954600160a060020a031681565b600854600160a060020a031681565b60025481565b61109f33600035600160e060020a0319166122c8565b15156110aa57600080fd5b60098054600160a060020a031916600160a060020a0392909216919091179055565b6110e233600035600160e060020a0319166122c8565b15156110ed57600080fd5b600a55565b61110833600035600160e060020a0319166122c8565b151561111357600080fd5b60088054600160a060020a031916600160a060020a0392909216919091179055565b600b5481565b6004546000906111ae90600160a060020a03166370a082313360405160e060020a63ffffffff8416028152600160a060020a039091166004820152602401602060405180830381600087803b151561119257600080fd5b5af1151561119f57600080fd5b50505060405180519050611689565b905090565b60008060006111ce33600035600160e060020a0319166122c8565b15156111d957600080fd5b60015460a060020a900460ff16156111f057600080fd5b600b548410156111ff57600080fd5b600854600160a060020a03166357de26a46040518163ffffffff1660e060020a028152600401602060405180830381600087803b151561123e57600080fd5b5af1151561124b57600080fd5b5050506040518051600454909350600160a060020a031690506323b872dd33308760405160e060020a63ffffffff8616028152600160a060020a0393841660048201529190921660248201526044810191909152606401602060405180830381600087803b15156112bb57600080fd5b5af115156112c857600080fd5b5050506040518051905015156112dd57600080fd5b600954600454600754600254600160a060020a0393841693630621b4f693811692899291169061131b90670de0b6b3a764000003610dfa848a612403565b60405160e060020a63ffffffff8716028152600160a060020a0394851660048201526024810193909352921660448201526064810191909152608401602060405180830381600087803b151561137057600080fd5b5af1151561137d57600080fd5b50505060405180519050905061139281612423565b92505b61139f838361248d565b156113a957611395565b600354600160a060020a031663baa8529c843360405160e060020a63ffffffff85160281526004810192909252600160a060020a03166024820152604401600060405180830381600087803b151561140057600080fd5b5af1151561140d57600080fd5b5050505050919050565b61142d33600035600160e060020a0319166122c8565b151561143857600080fd5b60078054600160a060020a031916600160a060020a0392909216919091179055565b61147033600035600160e060020a0319166122c8565b151561147b57600080fd5b600b55565b60015460a060020a900460ff1681565b6114a633600035600160e060020a0319166122c8565b15156114b157600080fd5b60048054600160a060020a031916600160a060020a0392909216919091179055565b6114e933600035600160e060020a0319166122c8565b15156114f457600080fd5b60008054600160a060020a031916600160a060020a038381169190911791829055167f1abebea81bfa2637f28358c371278fb15ede7ea8dd28d2e03b112ff6d936ada460405160405180910390a250565b600754600160a060020a031681565b61156a33600035600160e060020a0319166122c8565b151561157557600080fd5b600160a060020a03811663a9059cbb33826370a082313060405160e060020a63ffffffff8416028152600160a060020a039091166004820152602401602060405180830381600087803b15156115ca57600080fd5b5af115156115d757600080fd5b5050506040518051905060405160e060020a63ffffffff8516028152600160a060020a0390921660048301526024820152604401602060405180830381600087803b151561162457600080fd5b5af1151561163157600080fd5b5050506040518051505050565b61165433600035600160e060020a0319166122c8565b151561165f57600080fd5b60015460a060020a900460ff16151561167757600080fd5b33600160a060020a0316ff5b600c5481565b60008060006116a433600035600160e060020a0319166122c8565b15156116af57600080fd5b60015460a060020a900460ff16156116c657600080fd5b600b548410156116d557600080fd5b600854600160a060020a03166357de26a46040518163ffffffff1660e060020a028152600401602060405180830381600087803b151561171457600080fd5b5af1151561172157600080fd5b5050506040518051600454909350600160a060020a031690506323b872dd33308760405160e060020a63ffffffff8616028152600160a060020a0393841660048201529190921660248201526044810191909152606401602060405180830381600087803b151561179157600080fd5b5af1151561179e57600080fd5b5050506040518051905015156117b357600080fd5b600954600454600754600254600160a060020a0393841693630621b4f69381169289929116906117f190670de0b6b3a764000003610dfa848a612403565b60405160e060020a63ffffffff8716028152600160a060020a0394851660048201526024810193909352921660448201526064810191909152608401602060405180830381600087803b151561184657600080fd5b5af1151561185357600080fd5b50505060405180519050905061186881612423565b600354909350600160a060020a031663baa8529c843360405160e060020a63ffffffff85160281526004810192909252600160a060020a03166024820152604401600060405180830381600087803b151561140057600080fd5b600154600160a060020a031681565b6118e733600035600160e060020a0319166122c8565b15156118f257600080fd5b600354633b9aca0090600160a060020a031663ab0783da6040518163ffffffff1660e060020a028152600401602060405180830381600087803b151561193757600080fd5b5af1151561194457600080fd5b5050506040518051905081151561195757fe5b04600d55565b61197333600035600160e060020a0319166122c8565b151561197e57600080fd5b600435602435808233600160a060020a031660008035600160e060020a0319169034903660405183815260406020820181815290820183905260608201848480828437820191505094505050505060405180910390a450506001805474ff000000000000000000000000000000000000000019169055565b600054600160a060020a031681565b611a1b33600035600160e060020a0319166122c8565b1515611a2657600080fd5b60068054600160a060020a031916600160a060020a0392909216919091179055565b6004546000906111ae90600160a060020a03166370a082313360405160e060020a63ffffffff8416028152600160a060020a039091166004820152602401602060405180830381600087803b1515611a9f57600080fd5b5af11515611aac57600080fd5b505050604051805190506111b3565b60015460009060a060020a900460ff1615611ad557600080fd5b600a54341015611ae457600080fd5b600754600160a060020a031663d0e30db0346040518263ffffffff1660e060020a0281526004016000604051808303818588803b1515611b2357600080fd5b5af11515611b3057600080fd5b50505050611b3d34612423565b600354909150600160a060020a031663baa8529c823360405160e060020a63ffffffff85160281526004810192909252600160a060020a03166024820152604401600060405180830381600087803b1515611b9757600080fd5b5af11515611ba457600080fd5b50505090565b600a5481565b600080611bc933600035600160e060020a0319166122c8565b1515611bd457600080fd5b60015460a060020a900460ff1615611beb57600080fd5b600a54341015611bfa57600080fd5b600854600160a060020a03166357de26a46040518163ffffffff1660e060020a028152600401602060405180830381600087803b1515611c3957600080fd5b5af11515611c4657600080fd5b5050506040518051600754909250600160a060020a0316905063d0e30db0346040518263ffffffff1660e060020a0281526004016000604051808303818588803b1515611c9257600080fd5b5af11515611c9f57600080fd5b50505050611cac34612423565b91505b611cb9828261248d565b15611cc357611caf565b600354600160a060020a031663baa8529c833360405160e060020a63ffffffff85160281526004810192909252600160a060020a03166024820152604401600060405180830381600087803b1515611d1a57600080fd5b5af11515611d2757600080fd5b5050505090565b611d4433600035600160e060020a0319166122c8565b1515611d4f57600080fd5b600754600354600160a060020a039182169163095ea7b3911660001960405160e060020a63ffffffff8516028152600160a060020a0390921660048301526024820152604401602060405180830381600087803b1515611dae57600080fd5b5af11515611dbb57600080fd5b50505060405180515050600554600354600160a060020a039182169163095ea7b3911660001960405160e060020a63ffffffff8516028152600160a060020a0390921660048301526024820152604401602060405180830381600087803b1515611e2457600080fd5b5af11515611e3157600080fd5b50505060405180515050600454600354600160a060020a039182169163095ea7b3911660001960405160e060020a63ffffffff8516028152600160a060020a0390921660048301526024820152604401602060405180830381600087803b1515611e9a57600080fd5b5af11515611ea757600080fd5b50505060405180515050600654600354600160a060020a039182169163095ea7b3911660001960405160e060020a63ffffffff8516028152600160a060020a0390921660048301526024820152604401602060405180830381600087803b1515611f1057600080fd5b5af11515611f1d57600080fd5b50505060405180515050600754600154600160a060020a039182169163095ea7b3911660001960405160e060020a63ffffffff8516028152600160a060020a0390921660048301526024820152604401602060405180830381600087803b1515611f8657600080fd5b5af11515611f9357600080fd5b50505060405180515050600554600154600160a060020a039182169163095ea7b3911660001960405160e060020a63ffffffff8516028152600160a060020a0390921660048301526024820152604401602060405180830381600087803b1515611ffc57600080fd5b5af1151561200957600080fd5b50505060405180515050600454600154600160a060020a039182169163095ea7b3911660001960405160e060020a63ffffffff8516028152600160a060020a0390921660048301526024820152604401602060405180830381600087803b151561207257600080fd5b5af1151561207f57600080fd5b50505060405180515050600654600154600160a060020a039182169163095ea7b3911660001960405160e060020a63ffffffff8516028152600160a060020a0390921660048301526024820152604401602060405180830381600087803b15156120e857600080fd5b5af115156120f557600080fd5b50505060405180515050600454600954600160a060020a039182169163095ea7b3911660001960405160e060020a63ffffffff8516028152600160a060020a0390921660048301526024820152604401602060405180830381600087803b151561215e57600080fd5b5af1151561216b57600080fd5b50505060405180515050600754600954600160a060020a039182169163095ea7b3911660001960405160e060020a63ffffffff8516028152600160a060020a0390921660048301526024820152604401602060405180830381600087803b15156121d457600080fd5b5af115156121e157600080fd5b50505060405180519050506110546118d1565b61220a33600035600160e060020a0319166122c8565b151561221557600080fd5b670de0b6b3a7640000811061222957600080fd5b600255565b600454600160a060020a031681565b61225333600035600160e060020a0319166122c8565b151561225e57600080fd5b600354600160a060020a031663baa8529c823360405160e060020a63ffffffff85160281526004810192909252600160a060020a03166024820152604401600060405180830381600087803b15156122b557600080fd5b5af115156122c257600080fd5b50505050565b600030600160a060020a031683600160a060020a031614156122ec575060016123a9565b600154600160a060020a038481169116141561230a575060016123a9565b600054600160a060020a03161515612324575060006123a9565b600054600160a060020a031663b700961384308560405160e060020a63ffffffff8616028152600160a060020a039384166004820152919092166024820152600160e060020a03199091166044820152606401602060405180830381600087803b151561239057600080fd5b5af1151561239d57600080fd5b50505060405180519150505b92915050565b6000818311156123bf57816123c1565b825b9392505050565b6000670de0b6b3a76400006123f26123e08585612717565b6002670de0b6b3a76400005b0461273f565b8115156123fb57fe5b049392505050565b6000816123f261241b85670de0b6b3a7640000612717565b6002856123ec565b600354600090600160a060020a031663fcfff16f6040518163ffffffff1660e060020a028152600401602060405180830381600087803b151561246557600080fd5b5af1151561247257600080fd5b505050604051805190509050612488818361274f565b919050565b60035460009081908190819081908190600160a060020a031663f7c8d6348960405160e060020a63ffffffff84160281526004810191909152602401602060405180830381600087803b15156124e257600080fd5b5af115156124ef57600080fd5b5050506040518051600354909650600160a060020a03169050631f3634ed8960405160e060020a63ffffffff84160281526004810191909152602401602060405180830381600087803b151561254457600080fd5b5af1151561255157600080fd5b50505060405180519050935061257461256c600c54866123c8565b600d54612403565b9250828510612586576000955061270c565b61259083866128cf565b600b54909250821061270757600354600160a060020a031663440f19ba898460405160e060020a63ffffffff851602815260048101929092526024820152604401600060405180830381600087803b15156125ea57600080fd5b5af115156125f757600080fd5b5050600954600454600160a060020a039182169250630621b4f6911661265c85826370a082313060405160e060020a63ffffffff8416028152600160a060020a039091166004820152602401602060405180830381600087803b15156108eb57600080fd5b600754600254600160a060020a039091169061268690670de0b6b3a764000003610dfa898f612403565b60405160e060020a63ffffffff8716028152600160a060020a0394851660048201526024810193909352921660448201526064810191909152608401602060405180830381600087803b15156126db57600080fd5b5af115156126e857600080fd5b5050506040518051905090506126fe888261274f565b6001955061270c565b600095505b505050505092915050565b600081158061273457505080820282828281151561273157fe5b04145b15156123a957600080fd5b808201828110156123a957600080fd5b6003546000908190600160a060020a031663e47e7e66670de0b6b3a764000060405160e060020a63ffffffff84160281526004810191909152602401602060405180830381600087803b15156127a457600080fd5b5af115156127b157600080fd5b5050506040518051905091506127c78383612403565b600354909150600160a060020a031663049878f38260405160e060020a63ffffffff84160281526004810191909152602401600060405180830381600087803b151561281257600080fd5b5af1151561281f57600080fd5b5050600354600554600160a060020a03918216925063b3b77a51918791612887918691166370a082313060405160e060020a63ffffffff8416028152600160a060020a039091166004820152602401602060405180830381600087803b15156108eb57600080fd5b60405160e060020a63ffffffff851602815260048101929092526024820152604401600060405180830381600087803b15156128c257600080fd5b5af11515610ee657600080fd5b808203828111156123a957600080fd00a165627a7a72305820a15a4b8a1ab51c75247bd8f7aeb854662906f5ac3b0da733db045d34ac4207c40029",
  "source": "pragma solidity^0.4.21;\n\nimport \"./lib/ds-thing/thing.sol\";\nimport \"./lib/ds-token/token.sol\";\nimport \"./lib/ds-stop/stop.sol\";\nimport \"./lib/ds-proxy/proxy.sol\";\n\ninterface DSValue {\n    function peek() external constant returns (bytes32, bool);\n    function read() external constant returns (bytes32);\n}\n\ncontract TubInterface {\n\n    function mat() public view returns(uint);\n\n    // function cups(bytes32 cup) public view returns(Cup);\n\n    function ink(bytes32 cup) public view returns (uint);\n    function tab(bytes32 cup) public returns (uint);\n    function rap(bytes32 cup) public returns (uint);\n\n    //--Collateral-wrapper----------------------------------------------\n    // Wrapper ratio (gem per skr)\n    function per() public view returns (uint ray);\n    // Join price (gem per skr)\n    function ask(uint wad) public view returns (uint);\n    // Exit price (gem per skr)\n    function bid(uint wad) public view returns (uint);\n    function join(uint wad) public;\n    function exit(uint wad) public;\n\n    //--CDP-risk-indicator----------------------------------------------\n    // Abstracted collateral price (ref per skr)\n    function tag() public view returns (uint wad);\n    // Returns true if cup is well-collateralized\n    function safe(bytes32 cup) public returns (bool);\n\n    //--CDP-operations--------------------------------------------------\n    function open() public returns (bytes32 cup);\n    function give(bytes32 cup, address guy) public;\n    function lock(bytes32 cup, uint wad) public;\n    function free(bytes32 cup, uint wad) public;\n    function draw(bytes32 cup, uint wad) public;\n    function wipe(bytes32 cup, uint wad) public;\n    function shut(bytes32 cup) public;\n    function bite(bytes32 cup) public;\n}\n\ninterface OtcInterface {\n    function sellAllAmount(address, uint, address, uint) public returns (uint);\n    function buyAllAmount(address, uint, address, uint) public returns (uint);\n    function getPayAmount(address, address, uint) public constant returns (uint);\n}\n\ninterface ProxyCreationAndExecute {\n    \n    function createAndSellAllAmount(\n        DSProxyFactory factory, \n        OtcInterface otc, \n        ERC20 payToken, \n        uint payAmt, \n        ERC20 buyToken,\n        uint minBuyAmt) public \n        returns (DSProxy proxy, uint buyAmt);\n\n    function createAndSellAllAmountPayEth(\n        DSProxyFactory factory, \n        OtcInterface otc, \n        ERC20 buyToken, \n        uint minBuyAmt) public payable returns (DSProxy proxy, uint buyAmt);\n\n    function createAndSellAllAmountBuyEth(\n        DSProxyFactory factory, \n        OtcInterface otc, \n        ERC20 payToken, \n        uint payAmt, \n        uint minBuyAmt) public returns (DSProxy proxy, uint wethAmt);\n\n    function createAndBuyAllAmount(\n        DSProxyFactory factory, \n        OtcInterface otc, \n        ERC20 buyToken, \n        uint buyAmt, \n        ERC20 payToken, \n        uint maxPayAmt) public returns (DSProxy proxy, uint payAmt);\n\n    function createAndBuyAllAmountPayEth(\n        DSProxyFactory factory, \n        OtcInterface otc, \n        ERC20 buyToken, \n        uint buyAmt) public payable returns (DSProxy proxy, uint wethAmt);\n\n    function createAndBuyAllAmountBuyEth(\n        DSProxyFactory factory, \n        OtcInterface otc, \n        uint wethAmt, \n        ERC20 payToken, \n        uint maxPayAmt) public returns (DSProxy proxy, uint payAmt);\n} \n\ninterface OasisDirectInterface {\n    \n    function sellAllAmount(\n        OtcInterface otc, \n        ERC20 payToken, \n        uint payAmt, \n        ERC20 buyToken,\n        uint minBuyAmt) public \n        returns (uint buyAmt);\n\n    function sellAllAmountPayEth(\n        OtcInterface otc, \n        ERC20 buyToken, \n        uint minBuyAmt) public payable returns (uint buyAmt);\n\n    function sellAllAmountBuyEth(\n        OtcInterface otc, \n        ERC20 payToken, \n        uint payAmt, \n        uint minBuyAmt) public returns (uint wethAmt);\n\n    function buyAllAmount(\n        OtcInterface otc, \n        ERC20 buyToken, \n        uint buyAmt, \n        ERC20 payToken, \n        uint maxPayAmt) public returns (uint payAmt);\n\n    function buyAllAmountPayEth(\n        OtcInterface otc, \n        ERC20 buyToken, \n        uint buyAmt) public payable returns (uint wethAmt);\n\n    function buyAllAmountBuyEth(\n        OtcInterface otc, \n        uint wethAmt, \n        ERC20 payToken, \n        uint maxPayAmt) public returns (uint payAmt);\n}\n\ncontract WETH is ERC20 {\n    function deposit() public payable;\n    function withdraw(uint wad) public;\n}\n\n/**\n    A contract to help creating creating CDPs in MakerDAO's system\n    The motivation for this is simply to save time and automate some steps for people who\n    want to create CDPs often\n*/\ncontract CDPer is DSStop, DSMath {\n\n    ///Main Net\\\\\\\n    // uint public slippage = WAD / 50;//2%\n    // TubInterface public tub = TubInterface(0x448a5065aebb8e423f0896e6c5d525c040f59af3);\n    // DSToken public dai = DSToken(0x89d24A6b4CcB1B6fAA2625fE562bDD9a23260359);  // Stablecoin\n    // DSToken public skr = DSToken(0xf53AD2c6851052A81B42133467480961B2321C09);  // Abstracted collateral - PETH\n    // WETH public gem = WETH(0xC02aaA39b223FE8D0A0e5C4F27eAD9083C756Cc2);  // Underlying collateral - WETH\n    // DSValue public feed = DSValue(0x729D19f657BD0614b4985Cf1D82531c67569197B);  // Price feed\n    // OtcInterface public otc = OtcInterface(0x14FBCA95be7e99C15Cc2996c6C9d841e54B79425);\n\n    ///Kovan test net\\\\\\\n    ///This is the acceptable price difference when exchanging at the otc. 0.01 * 10^18 == 1% acceptable slippage \n    uint public slippage = 99*10**16;//99%\n    TubInterface public tub = TubInterface(0xa71937147b55Deb8a530C7229C442Fd3F31b7db2);\n    DSToken public dai = DSToken(0xC4375B7De8af5a38a93548eb8453a498222C4fF2);  // Stablecoin\n    DSToken public skr = DSToken(0xf4d791139cE033Ad35DB2B2201435fAd668B1b64);  // Abstracted collateral - PETH\n    DSToken public gov = DSToken(0xAaF64BFCC32d0F15873a02163e7E500671a4ffcD);  // MKR Token\n    WETH public gem = WETH(0xd0A1E359811322d97991E03f863a0C30C2cF029C);  // Underlying collateral - WETH\n    DSValue public feed = DSValue(0xA944bd4b25C9F186A846fd5668941AA3d3B8425F);  // Price feed\n    OtcInterface public otc = OtcInterface(0x8cf1Cab422A0b6b554077A361f8419cDf122a9F9);\n\n    ///You won't be able to create a CDP or trade less than these values\n    uint public minETH = WAD / 20; //0.05 ETH\n    uint public minDai = WAD * 50; //50 Dai\n\n    //if you recursively want to invest your CDP, this will be the target liquidation price\n    uint public liquidationPriceWad = 320 * WAD;\n\n    /// liquidation ratio from Maker tub (can be updated manually)\n    uint ratio;\n\n    function CDPer() public {\n\n    }\n\n    /**\n     @notice Sets all allowances and updates tub liquidation ratio\n     */\n    function init() public auth {\n        gem.approve(tub, uint(-1));\n        skr.approve(tub, uint(-1));\n        dai.approve(tub, uint(-1));\n        gov.approve(tub, uint(-1));\n        \n        gem.approve(owner, uint(-1));\n        skr.approve(owner, uint(-1));\n        dai.approve(owner, uint(-1));\n        gov.approve(owner, uint(-1));\n\n        dai.approve(otc, uint(-1));\n        gem.approve(otc, uint(-1));\n\n        tubParamUpdate();\n    }\n\n    /**\n     @notice updates tub liquidation ratio\n     */\n    function tubParamUpdate() public auth {\n        ratio = tub.mat() / 10**9; //liquidation ratio\n    }\n\n     /**\n     @notice create a CDP and join with the ETH sent to this function\n     @dev This function wraps ETH, converts to PETH, creates a CDP, joins with the PETH created and gives the CDP to the sender. Will revert if there's not enough WETH to buy with the acceptable slippage\n     */\n    function createAndJoinCDP() public stoppable payable returns(bytes32 id) {\n\n        require(msg.value >= minETH);\n\n        gem.deposit.value(msg.value)();\n        \n        id = _openAndJoinCDPWETH(msg.value);\n\n        tub.give(id, msg.sender);\n    }\n\n    /**\n     @notice create a CDP from all the Dai in the sender's balance - needs Dai transfer approval\n     @dev this function will sell the Dai at otc for weth and then do the same as create and JoinCDP.  Will revert if there's not enough WETH to buy with the acceptable slippage\n     */\n    function createAndJoinCDPAllDai() public returns(bytes32 id) {\n        return createAndJoinCDPDai(dai.balanceOf(msg.sender));\n    }\n\n    /**\n     @notice create a CDP from the given amount of Dai in the sender's balance - needs Dai transfer approval\n     @dev this function will sell the Dai at otc for weth and then do the same as create and JoinCDP.  Will revert if there's not enough WETH to buy with the acceptable slippage\n     @param amount - dai to transfer from the sender's balance (needs approval)\n     */\n    function createAndJoinCDPDai(uint amount) public auth stoppable returns(bytes32 id) {\n        require(amount >= minDai);\n\n        uint price = uint(feed.read());\n\n        require(dai.transferFrom(msg.sender, this, amount));\n\n        uint bought = otc.sellAllAmount(dai, amount,\n            gem, wmul(WAD - slippage, wdiv(amount, price)));\n        \n        id = _openAndJoinCDPWETH(bought);\n        \n        tub.give(id, msg.sender);\n    }\n\n\n    /**\n     @notice create a CDP from the ETH sent, and then create Dai and reinvest it in the CDP until the target liquidation price is reached (or the minimum investment amount)\n     @dev same as openAndJoinCDP, but then draw and reinvest dai. Will revert if trades are not possible.\n     */\n    function createCDPLeveraged() public auth stoppable payable returns(bytes32 id) {\n        require(msg.value >= minETH);\n\n        uint price = uint(feed.read());\n\n        gem.deposit.value(msg.value)();\n\n        id = _openAndJoinCDPWETH(msg.value);\n\n        while(_reinvest(id, price)) {}\n\n        tub.give(id, msg.sender);\n    }\n\n    /**\n     @notice create a CDP all the Dai in the sender's balance (needs approval), and then create Dai and reinvest it in the CDP until the target liquidation price is reached (or the minimum investment amount)\n     @dev same as openAndJoinCDPDai, but then draw and reinvest dai. Will revert if trades are not possible.\n     */\n    function createCDPLeveragedAllDai() public returns(bytes32 id) {\n        return createCDPLeveragedDai(dai.balanceOf(msg.sender)); \n    }\n    \n    /**\n     @notice create a CDP the given amount of Dai in the sender's balance (needs approval), and then create Dai and reinvest it in the CDP until the target liquidation price is reached (or the minimum investment amount)\n     @dev same as openAndJoinCDPDai, but then draw and reinvest dai. Will revert if trades are not possible.\n     */\n    function createCDPLeveragedDai(uint amount) public auth stoppable returns(bytes32 id) {\n\n        require(amount >= minDai);\n\n        uint price = uint(feed.read());\n\n        require(dai.transferFrom(msg.sender, this, amount));\n        uint bought = otc.sellAllAmount(dai, amount,\n            gem, wmul(WAD - slippage, wdiv(amount, price)));\n\n        id = _openAndJoinCDPWETH(bought);\n\n        while(_reinvest(id, price)) {}\n\n        tub.give(id, msg.sender);\n    }\n\n    /**\n     @notice Shuts a CDP and returns the value in the form of ETH. You need to give permission for the amount of debt in Dai, so that the contract will draw it from your account. You need to give the CDP to this contract before using this function. You also need to send a small amount of MKR to this contract so that the fee can be paid.\n     @dev this function pays all debt(from the sender's account) and fees(there must be enough MKR present on this account), then it converts PETH to WETH, and then WETH to ETH, finally it sends the balance to the sender\n     @param _id id of the CDP to shut - it must be given to this contract\n     */\n    function shutForETH(uint _id) public auth stoppable {\n        bytes32 id = bytes32(_id);\n        uint debt = tub.tab(id);\n        if (debt > 0) {\n            require(dai.transferFrom(msg.sender, this, debt));\n        }\n        uint ink = tub.ink(id);// locked collateral\n        tub.shut(id);\n        uint gemBalance = tub.bid(ink);\n        tub.exit(ink);\n\n        gem.withdraw(min(gemBalance, gem.balanceOf(this)));\n        \n        msg.sender.transfer(min(gemBalance, address(this).balance));\n    }\n\n    /**\n     @notice shuts the CDP and returns all the value in the form of Dai. You need to give permission for the amount of debt in Dai, so that the contract will draw it from your account. You need to give the CDP to this contract before using this function. You also need to send a small amount of MKR to this contract so that the fee can be paid.\n     @dev this function pays all debt(from the sender's account) and fees(there must be enough MKR present on this account), then it converts PETH to WETH, then trades WETH for Dai, and sends it to the sender\n     @param _id id of the CDP to shut - it must be given to this contract\n     */\n    function shutForDai(uint _id) public auth stoppable {\n        bytes32 id = bytes32(_id);\n        uint debt = tub.tab(id);\n        if (debt > 0) {\n            require(dai.transferFrom(msg.sender, this, debt));\n        }\n        uint ink = tub.ink(id);// locked collateral\n        tub.shut(id);\n        uint gemBalance = tub.bid(ink);\n        tub.exit(ink);\n\n        uint price = uint(feed.read());\n\n        uint bought = otc.sellAllAmount(gem, min(gemBalance, gem.balanceOf(this)), \n            dai, wmul(WAD - slippage, wmul(gemBalance, price)));\n        \n        require(dai.transfer(msg.sender, bought));\n    }\n\n    /**\n     @notice give ownership of a CDP back to the sender\n     @param id id of the CDP owned by this contract\n     */\n    function giveMeCDP(uint id) public auth {\n        tub.give(bytes32(id), msg.sender);\n    }\n\n    /**\n     @notice transfer any token from this contract to the sender\n     @param token : token contract address\n     */\n    function giveMeToken(DSToken token) public auth {\n        token.transfer(msg.sender, token.balanceOf(this));\n    }\n\n    /**\n     @notice transfer all ETH balance from this contract to the sender\n     */\n    function giveMeETH() public auth {\n        msg.sender.transfer(address(this).balance);\n    }\n\n    /**\n     @notice transfer all ETH balance from this contract to the sender and destroy the contract. Must be stopped\n     */\n    function destroy() public auth {\n        require(stopped);\n        selfdestruct(msg.sender);\n    }\n\n    /**\n     @notice set the acceptable price slippage for trades.\n     @param slip E.g: 0.01 * 10^18 == 1% acceptable slippage \n     */\n    function setSlippage(uint slip) public auth {\n        require(slip < WAD);\n        slippage = slip;\n    }\n\n    /**\n     @notice set the target liquidation price for leveraged CDPs created \n     @param wad E.g. 300 * 10^18 == 300 USD target liquidation price\n     */\n    function setLiqPrice(uint wad) public auth {        \n        liquidationPriceWad = wad;\n    }\n\n    /**\n     @notice set the minimal ETH for trades (depends on otc)\n     @param wad minimal ETH to trade\n     */\n    function setMinETH(uint wad) public auth {\n        minETH = wad;\n    }\n\n    /**\n     @notice set the minimal Dai for trades (depends on otc)\n     @param wad minimal Dai to trade\n     */\n    function setMinDai(uint wad) public auth {\n        minDai = wad;\n    }\n\n    function setTub(TubInterface _tub) public auth {\n        tub = _tub;\n    }\n\n    function setDai(DSToken _dai) public auth {\n        dai = _dai;\n    }\n\n    function setSkr(DSToken _skr) public auth {\n        skr = _skr;\n    }\n    function setGov(DSToken _gov) public auth {\n        gov = _gov;\n    }\n    function setGem(WETH _gem) public auth {\n        gem = _gem;\n    }\n    function setFeed(DSValue _feed) public auth {\n        feed = _feed;\n    }\n    function setOTC(OtcInterface _otc) public auth {\n        otc = _otc;\n    }\n\n    function _openAndJoinCDPWETH(uint amount) internal returns(bytes32 id) {\n        id = tub.open();\n\n        _joinCDP(id, amount);\n    }\n\n    function _joinCDP(bytes32 id, uint amount) internal {\n\n        uint skRate = tub.ask(WAD);\n        \n        uint valueSkr = wdiv(amount, skRate);\n\n        tub.join(valueSkr); \n\n        tub.lock(id, min(valueSkr, skr.balanceOf(this)));\n    }\n\n    function _reinvest(bytes32 id, uint latestPrice) internal returns(bool ok) {\n        \n        // Cup memory cup = tab.cups(id);\n        uint debt = tub.tab(id);\n        uint ink = tub.ink(id);// locked collateral\n        \n        uint maxInvest = wdiv(wmul(liquidationPriceWad, ink), ratio);\n        \n        if(debt >= maxInvest) {\n            return false;\n        }\n        \n        uint leftOver = sub(maxInvest, debt);\n        \n        if(leftOver >= minDai) {\n            tub.draw(id, leftOver);\n\n            uint bought = otc.sellAllAmount(dai, min(leftOver, dai.balanceOf(this)),\n                gem, wmul(WAD - slippage, wdiv(leftOver, latestPrice)));\n            \n            _joinCDP(id, bought);\n\n            return true;\n        } else {\n            return false;\n        }\n    }\n\n}\n\ncontract CDPerFactory {\n    event Created(address indexed sender, address cdper);\n    mapping(address=>bool) public isCDPer;\n\n    // deploys a new CDPer instance\n    // sets owner of CDPer to caller\n    function build() public returns (CDPer cdper) {\n        cdper = build(msg.sender);\n    }\n\n    // deploys a new CDPer instance\n    // sets custom owner of CDPer\n    function build(address owner) public returns (CDPer cdper) {\n        cdper = new CDPer();\n        emit Created(owner, address(cdper));\n        cdper.setOwner(owner);\n        isCDPer[cdper] = true;\n    }\n}",
  "sourcePath": "/home/paskal/cdper/contracts/cdper.sol",
  "compiler": {
    "name": "solc",
    "version": "0.4.21+commit.dfe3193c.Emscripten.clang"
  },
  "schemaVersion": "2.0.0",
  "updatedAt": "2018-04-18T11:56:24.774Z"
}