{
  "contractName": "CDPer",
  "abi": [
    {
      "constant": false,
      "inputs": [],
      "name": "stop",
      "outputs": [],
      "payable": false,
      "stateMutability": "nonpayable",
      "type": "function"
    },
    {
      "constant": true,
      "inputs": [],
      "name": "skr",
      "outputs": [
        {
          "name": "",
          "type": "address"
        }
      ],
      "payable": false,
      "stateMutability": "view",
      "type": "function"
    },
    {
      "constant": false,
      "inputs": [
        {
          "name": "owner_",
          "type": "address"
        }
      ],
      "name": "setOwner",
      "outputs": [],
      "payable": false,
      "stateMutability": "nonpayable",
      "type": "function"
    },
    {
      "constant": true,
      "inputs": [],
      "name": "tub",
      "outputs": [
        {
          "name": "",
          "type": "address"
        }
      ],
      "payable": false,
      "stateMutability": "view",
      "type": "function"
    },
    {
      "constant": true,
      "inputs": [],
      "name": "otc",
      "outputs": [
        {
          "name": "",
          "type": "address"
        }
      ],
      "payable": false,
      "stateMutability": "view",
      "type": "function"
    },
    {
      "constant": true,
      "inputs": [],
      "name": "feed",
      "outputs": [
        {
          "name": "",
          "type": "address"
        }
      ],
      "payable": false,
      "stateMutability": "view",
      "type": "function"
    },
    {
      "constant": true,
      "inputs": [],
      "name": "slippage",
      "outputs": [
        {
          "name": "",
          "type": "uint256"
        }
      ],
      "payable": false,
      "stateMutability": "view",
      "type": "function"
    },
    {
      "constant": true,
      "inputs": [],
      "name": "oasisDirectProxy",
      "outputs": [
        {
          "name": "",
          "type": "address"
        }
      ],
      "payable": false,
      "stateMutability": "view",
      "type": "function"
    },
    {
      "constant": true,
      "inputs": [],
      "name": "minDai",
      "outputs": [
        {
          "name": "",
          "type": "uint256"
        }
      ],
      "payable": false,
      "stateMutability": "view",
      "type": "function"
    },
    {
      "constant": true,
      "inputs": [],
      "name": "stopped",
      "outputs": [
        {
          "name": "",
          "type": "bool"
        }
      ],
      "payable": false,
      "stateMutability": "view",
      "type": "function"
    },
    {
      "constant": false,
      "inputs": [
        {
          "name": "authority_",
          "type": "address"
        }
      ],
      "name": "setAuthority",
      "outputs": [],
      "payable": false,
      "stateMutability": "nonpayable",
      "type": "function"
    },
    {
      "constant": true,
      "inputs": [],
      "name": "gem",
      "outputs": [
        {
          "name": "",
          "type": "address"
        }
      ],
      "payable": false,
      "stateMutability": "view",
      "type": "function"
    },
    {
      "constant": true,
      "inputs": [],
      "name": "liquidationPriceWad",
      "outputs": [
        {
          "name": "",
          "type": "uint256"
        }
      ],
      "payable": false,
      "stateMutability": "view",
      "type": "function"
    },
    {
      "constant": true,
      "inputs": [],
      "name": "owner",
      "outputs": [
        {
          "name": "",
          "type": "address"
        }
      ],
      "payable": false,
      "stateMutability": "view",
      "type": "function"
    },
    {
      "constant": true,
      "inputs": [],
      "name": "proxyCreationAndExecute",
      "outputs": [
        {
          "name": "",
          "type": "address"
        }
      ],
      "payable": false,
      "stateMutability": "view",
      "type": "function"
    },
    {
      "constant": false,
      "inputs": [],
      "name": "start",
      "outputs": [],
      "payable": false,
      "stateMutability": "nonpayable",
      "type": "function"
    },
    {
      "constant": true,
      "inputs": [],
      "name": "authority",
      "outputs": [
        {
          "name": "",
          "type": "address"
        }
      ],
      "payable": false,
      "stateMutability": "view",
      "type": "function"
    },
    {
      "constant": true,
      "inputs": [],
      "name": "proxyFactory",
      "outputs": [
        {
          "name": "",
          "type": "address"
        }
      ],
      "payable": false,
      "stateMutability": "view",
      "type": "function"
    },
    {
      "constant": true,
      "inputs": [],
      "name": "minETH",
      "outputs": [
        {
          "name": "",
          "type": "uint256"
        }
      ],
      "payable": false,
      "stateMutability": "view",
      "type": "function"
    },
    {
      "constant": true,
      "inputs": [],
      "name": "dai",
      "outputs": [
        {
          "name": "",
          "type": "address"
        }
      ],
      "payable": false,
      "stateMutability": "view",
      "type": "function"
    },
    {
      "inputs": [],
      "payable": false,
      "stateMutability": "nonpayable",
      "type": "constructor"
    },
    {
      "anonymous": false,
      "inputs": [
        {
          "indexed": true,
          "name": "authority",
          "type": "address"
        }
      ],
      "name": "LogSetAuthority",
      "type": "event"
    },
    {
      "anonymous": false,
      "inputs": [
        {
          "indexed": true,
          "name": "owner",
          "type": "address"
        }
      ],
      "name": "LogSetOwner",
      "type": "event"
    },
    {
      "anonymous": true,
      "inputs": [
        {
          "indexed": true,
          "name": "sig",
          "type": "bytes4"
        },
        {
          "indexed": true,
          "name": "guy",
          "type": "address"
        },
        {
          "indexed": true,
          "name": "foo",
          "type": "bytes32"
        },
        {
          "indexed": true,
          "name": "bar",
          "type": "bytes32"
        },
        {
          "indexed": false,
          "name": "wad",
          "type": "uint256"
        },
        {
          "indexed": false,
          "name": "fax",
          "type": "bytes"
        }
      ],
      "name": "LogNote",
      "type": "event"
    },
    {
      "constant": false,
      "inputs": [],
      "name": "init",
      "outputs": [],
      "payable": false,
      "stateMutability": "nonpayable",
      "type": "function"
    },
    {
      "constant": false,
      "inputs": [],
      "name": "createAndJoinCDP",
      "outputs": [
        {
          "name": "id",
          "type": "bytes32"
        }
      ],
      "payable": true,
      "stateMutability": "payable",
      "type": "function"
    },
    {
      "constant": false,
      "inputs": [
        {
          "name": "amount",
          "type": "uint256"
        }
      ],
      "name": "createAndJoinCDPAllDai",
      "outputs": [
        {
          "name": "id",
          "type": "bytes32"
        }
      ],
      "payable": false,
      "stateMutability": "nonpayable",
      "type": "function"
    },
    {
      "constant": false,
      "inputs": [
        {
          "name": "amount",
          "type": "uint256"
        }
      ],
      "name": "createAndJoinCDPDai",
      "outputs": [
        {
          "name": "id",
          "type": "bytes32"
        }
      ],
      "payable": false,
      "stateMutability": "nonpayable",
      "type": "function"
    },
    {
      "constant": false,
      "inputs": [],
      "name": "createCDPLeveraged",
      "outputs": [
        {
          "name": "id",
          "type": "bytes32"
        }
      ],
      "payable": true,
      "stateMutability": "payable",
      "type": "function"
    },
    {
      "constant": false,
      "inputs": [],
      "name": "createCDPLeveragedAllDai",
      "outputs": [
        {
          "name": "id",
          "type": "bytes32"
        }
      ],
      "payable": false,
      "stateMutability": "nonpayable",
      "type": "function"
    },
    {
      "constant": false,
      "inputs": [
        {
          "name": "amount",
          "type": "uint256"
        }
      ],
      "name": "createCDPLeveragedDai",
      "outputs": [
        {
          "name": "id",
          "type": "bytes32"
        }
      ],
      "payable": false,
      "stateMutability": "nonpayable",
      "type": "function"
    },
    {
      "constant": false,
      "inputs": [
        {
          "name": "_id",
          "type": "uint256"
        }
      ],
      "name": "shut",
      "outputs": [],
      "payable": false,
      "stateMutability": "nonpayable",
      "type": "function"
    },
    {
      "constant": false,
      "inputs": [
        {
          "name": "_id",
          "type": "uint256"
        }
      ],
      "name": "shutAndSell",
      "outputs": [],
      "payable": false,
      "stateMutability": "nonpayable",
      "type": "function"
    },
    {
      "constant": false,
      "inputs": [
        {
          "name": "slip",
          "type": "uint256"
        }
      ],
      "name": "setSlippage",
      "outputs": [],
      "payable": false,
      "stateMutability": "nonpayable",
      "type": "function"
    },
    {
      "constant": false,
      "inputs": [
        {
          "name": "liq",
          "type": "uint256"
        }
      ],
      "name": "setLiqPrice",
      "outputs": [],
      "payable": false,
      "stateMutability": "nonpayable",
      "type": "function"
    },
    {
      "constant": false,
      "inputs": [
        {
          "name": "id",
          "type": "uint256"
        }
      ],
      "name": "giveMe",
      "outputs": [],
      "payable": false,
      "stateMutability": "nonpayable",
      "type": "function"
    },
    {
      "constant": false,
      "inputs": [],
      "name": "giveMeWETH",
      "outputs": [],
      "payable": false,
      "stateMutability": "nonpayable",
      "type": "function"
    },
    {
      "constant": false,
      "inputs": [],
      "name": "giveMeDai",
      "outputs": [],
      "payable": false,
      "stateMutability": "nonpayable",
      "type": "function"
    },
    {
      "constant": false,
      "inputs": [],
      "name": "giveMePETH",
      "outputs": [],
      "payable": false,
      "stateMutability": "nonpayable",
      "type": "function"
    },
    {
      "constant": false,
      "inputs": [
        {
          "name": "token",
          "type": "address"
        }
      ],
      "name": "giveMeToken",
      "outputs": [],
      "payable": false,
      "stateMutability": "nonpayable",
      "type": "function"
    },
    {
      "constant": false,
      "inputs": [],
      "name": "giveETH",
      "outputs": [],
      "payable": false,
      "stateMutability": "nonpayable",
      "type": "function"
    }
  ],
  "bytecode": "0x6060604052670dbd2fc137a3000060025566b1a2bc2ec500006003556802b5e3af16b1880000600455681158e460913d000000600855341561004057600080fd5b60018054600160a060020a03191633600160a060020a03169081179091557fce241d7ca1f669fee44b6fc00b8eba2df3bb514eed0f6f668f8f89096e81ed9460405160405180910390a2612949806100996000396000f3006060604052600436106101b35763ffffffff60e060020a60003504166307da68f581146101b85780630a9626ba146101cd5780630f8a771e146101eb5780630fc44b191461021457806313af403514610227578063332a09e71461024557806334e70cc21461027057806336b61e3c1461028357806337a7b7d8146102965780633e032a3b146102a957806344dee17f146102bc57806355c215ec146102da5780635cf28fa4146102fa5780636092e55b1461030d5780636ebf9f651461032b57806375f12b211461033e5780637a9e5e4b1461035e5780637bd2bea71461037c5780637e9f16321461038f57806388cf6648146103ad5780638b4d56de146103c05780638da5cb5b146103de5780639818c111146103f1578063bca7fe401461040f578063be9a655514610422578063bf7e214f14610435578063c10f1a7514610448578063d9bdd6fa1461045b578063db5b5a8a1461046e578063dcff2f761461048c578063df67d82d14610494578063dfe71183146104a7578063e1c7392a146104af578063eac348d0146104c2578063f0fa55a9146104d5578063f4b9fa75146104f3578063fcd43ce814610506575b600080fd5b34156101c357600080fd5b6101cb610519565b005b34156101d857600080fd5b6101cb6101e63660046126ba565b61059d565b34156101f657600080fd5b6101fe6105c3565b60405161020b91906127f2565b60405180910390f35b341561021f57600080fd5b6101cb6105db565b341561023257600080fd5b6101cb610240366004612676565b6106b9565b341561025057600080fd5b61026361025e3660046126ba565b610738565b60405161020b91906127bb565b341561027b57600080fd5b6101fe6107c4565b341561028e57600080fd5b6101fe6107d6565b34156102a157600080fd5b6101fe6107ee565b34156102b457600080fd5b610263610806565b34156102c757600080fd5b6101cb6102d53660046126ba565b61080c565b34156102e557600080fd5b6102ed61088f565b60405161020b9190612734565b341561030557600080fd5b6102636108a7565b341561031857600080fd5b6102636103263660046126ba565b6108ad565b341561033657600080fd5b6101cb610c19565b341561034957600080fd5b610351610c79565b60405161020b91906127ad565b341561036957600080fd5b6101cb61037736600461269c565b610c89565b341561038757600080fd5b6101fe610d08565b341561039a57600080fd5b6101cb6103a836600461269c565b610d1a565b34156103b857600080fd5b610263610df4565b34156103cb57600080fd5b6102636103d93660046126ba565b610dfa565b34156103e957600080fd5b6102ed61107e565b34156103fc57600080fd5b6101cb61040a3660046126ba565b61108d565b341561041a57600080fd5b6101fe61152a565b341561042d57600080fd5b6101cb611542565b341561044057600080fd5b6101fe6115c0565b341561045357600080fd5b6101fe6115cf565b341561046657600080fd5b6102636115e7565b341561047957600080fd5b6101cb6104873660046126ba565b611672565b6102636119f8565b341561049f57600080fd5b610263611bb2565b610263611bb8565b34156104ba57600080fd5b6101cb611def565b34156104cd57600080fd5b6101cb612044565b34156104e057600080fd5b6101cb6104ee3660046126ba565b6120a0565b34156104fe57600080fd5b6101fe6120da565b341561051157600080fd5b6101cb6120ec565b61052f33600035600160e060020a03191661214e565b151561053a57600080fd5b600435602435808233600160a060020a031660008035600160e060020a0319169034903660405161056d9392919061284c565b60405180910390a450506001805474ff0000000000000000000000000000000000000000191660a060020a179055565b6105b333600035600160e060020a03191661214e565b15156105be57600080fd5b600855565b73f4d791139ce033ad35db2b2201435fad668b1b6481565b6105f133600035600160e060020a03191661214e565b15156105fc57600080fd5b6000805160206128b083398151915263a9059cbb33826370a08231306040518263ffffffff1660e060020a02815260040161063791906127f2565b602060405180830381600087803b151561065057600080fd5b5af1151561065d57600080fd5b505050604051805190506040518363ffffffff1660e060020a028152600401610687929190612792565b602060405180830381600087803b15156106a057600080fd5b5af115156106ad57600080fd5b50505060405180515050565b6106cf33600035600160e060020a03191661214e565b15156106da57600080fd5b6001805473ffffffffffffffffffffffffffffffffffffffff1916600160a060020a038381169190911791829055167fce241d7ca1f669fee44b6fc00b8eba2df3bb514eed0f6f668f8f89096e81ed9460405160405180910390a250565b60015460009060a060020a900460ff161561075257600080fd5b6107be6000805160206128d08339815191526370a08231336040518263ffffffff1660e060020a0281526004016107899190612734565b602060405180830381600087803b15156107a257600080fd5b5af115156107af57600080fd5b50505060405180519050610dfa565b92915050565b6000805160206128f083398151915281565b738cf1cab422a0b6b554077a361f8419cdf122a9f981565b73a944bd4b25c9f186a846fd5668941aa3d3b8425f81565b60025481565b61082233600035600160e060020a03191661214e565b151561082d57600080fd5b6000805160206128f083398151915263baa8529c82336040518363ffffffff1660e060020a0281526004016108639291906127c9565b600060405180830381600087803b151561087c57600080fd5b5af1151561088957600080fd5b50505050565b73e635f5f52220a114fea0985abf7ec8144710507b81565b60045481565b600154600090819060a060020a900460ff16156108c957600080fd5b6003543410156108d857600080fd5b633b9aca006000805160206128f083398151915263ab0783da6040518163ffffffff1660e060020a028152600401602060405180830381600087803b151561091f57600080fd5b5af1151561092c57600080fd5b5050506040518051905081151561093f57fe5b0460065573a944bd4b25c9f186a846fd5668941aa3d3b8425f6357de26a46040518163ffffffff1660e060020a028152600401602060405180830381600087803b151561098b57600080fd5b5af1151561099857600080fd5b5050506040518051600755506000805160206128f083398151915263e47e7e66670de0b6b3a76400006040518263ffffffff1660e060020a0281526004016109e091906127bb565b602060405180830381600087803b15156109f957600080fd5b5af11515610a0657600080fd5b5050506040518051600555506000805160206128d08339815191526323b872dd3330866040518463ffffffff1660e060020a028152600401610a4a93929190612742565b602060405180830381600087803b1515610a6357600080fd5b5af11515610a7057600080fd5b505050604051805190501515610a8557600080fd5b738cf1cab422a0b6b554077a361f8419cdf122a9f9600160a060020a0316630621b4f66000805160206128d0833981519152856000805160206128b0833981519152610ae8600254670de0b6b3a764000003610ae38a600754612215565b612248565b6040518563ffffffff1660e060020a028152600401610b0a9493929190612800565b602060405180830381600087803b1515610b2357600080fd5b5af11515610b3057600080fd5b505050604051805191506000805160206128f0833981519152905063fcfff16f6040518163ffffffff1660e060020a028152600401602060405180830381600087803b1515610b7e57600080fd5b5af11515610b8b57600080fd5b505050604051805190509150610ba18234612270565b610baa82612378565b15610bb457610ba1565b6000805160206128f083398151915263baa8529c83336040518363ffffffff1660e060020a028152600401610bea9291906127c9565b600060405180830381600087803b1515610c0357600080fd5b5af11515610c1057600080fd5b50505050919050565b610c2f33600035600160e060020a03191661214e565b1515610c3a57600080fd5b33600160a060020a03166108fc30600160a060020a0316319081150290604051600060405180830381858888f193505050501515610c7757600080fd5b565b60015460a060020a900460ff1681565b610c9f33600035600160e060020a03191661214e565b1515610caa57600080fd5b6000805473ffffffffffffffffffffffffffffffffffffffff1916600160a060020a038381169190911791829055167f1abebea81bfa2637f28358c371278fb15ede7ea8dd28d2e03b112ff6d936ada460405160405180910390a250565b6000805160206128b083398151915281565b610d3033600035600160e060020a03191661214e565b1515610d3b57600080fd5b600160a060020a03811663a9059cbb33826370a08231306040518263ffffffff1660e060020a028152600401610d7191906127f2565b602060405180830381600087803b1515610d8a57600080fd5b5af11515610d9757600080fd5b505050604051805190506040518363ffffffff1660e060020a028152600401610dc1929190612792565b602060405180830381600087803b1515610dda57600080fd5b5af11515610de757600080fd5b5050506040518051505050565b60085481565b600154600090819060a060020a900460ff1615610e1657600080fd5b600454831015610e2557600080fd5b73a944bd4b25c9f186a846fd5668941aa3d3b8425f6357de26a46040518163ffffffff1660e060020a028152600401602060405180830381600087803b1515610e6d57600080fd5b5af11515610e7a57600080fd5b5050506040518051600755506000805160206128d08339815191526323b872dd3330866040518463ffffffff1660e060020a028152600401610ebe93929190612742565b602060405180830381600087803b1515610ed757600080fd5b5af11515610ee457600080fd5b505050604051805190501515610ef957600080fd5b738cf1cab422a0b6b554077a361f8419cdf122a9f9600160a060020a0316630621b4f66000805160206128d0833981519152856000805160206128b0833981519152610f57600254670de0b6b3a764000003610ae38a600754612215565b6040518563ffffffff1660e060020a028152600401610f799493929190612800565b602060405180830381600087803b1515610f9257600080fd5b5af11515610f9f57600080fd5b505050604051805191506000805160206128f0833981519152905063fcfff16f6040518163ffffffff1660e060020a028152600401602060405180830381600087803b1515610fed57600080fd5b5af11515610ffa57600080fd5b505050604051805192506000805160206128f0833981519152905063e47e7e66670de0b6b3a76400006040518263ffffffff1660e060020a02815260040161104291906127bb565b602060405180830381600087803b151561105b57600080fd5b5af1151561106857600080fd5b505050604051805160055550610bb48282612270565b600154600160a060020a031681565b60008060008060006110ab33600035600160e060020a03191661214e565b15156110b657600080fd5b60015460a060020a900460ff16156110cd57600080fd5b8594506000805160206128f083398151915263f7c8d634866040518263ffffffff1660e060020a02815260040161110491906127bb565b602060405180830381600087803b151561111d57600080fd5b5af1151561112a57600080fd5b505050604051805194505060008411156111b1576000805160206128d08339815191526323b872dd3330876040518463ffffffff1660e060020a02815260040161117693929190612742565b602060405180830381600087803b151561118f57600080fd5b5af1151561119c57600080fd5b5050506040518051905015156111b157600080fd5b6000805160206128f0833981519152631f3634ed866040518263ffffffff1660e060020a0281526004016111e591906127bb565b602060405180830381600087803b15156111fe57600080fd5b5af1151561120b57600080fd5b505050604051805193506000805160206128f0833981519152905063b84d2106866040518263ffffffff1660e060020a02815260040161124b91906127bb565b600060405180830381600087803b151561126457600080fd5b5af1151561127157600080fd5b5050506000805160206128f0833981519152600160a060020a031663454a2ab3846040518263ffffffff1660e060020a0281526004016112b191906127bb565b602060405180830381600087803b15156112ca57600080fd5b5af115156112d757600080fd5b505050604051805192506000805160206128f08339815191529050637f8661a1846040518263ffffffff1660e060020a02815260040161131791906127bb565b600060405180830381600087803b151561133057600080fd5b5af1151561133d57600080fd5b50505073a944bd4b25c9f186a846fd5668941aa3d3b8425f600160a060020a03166357de26a46040518163ffffffff1660e060020a028152600401602060405180830381600087803b151561139157600080fd5b5af1151561139e57600080fd5b505050604051805160075550738cf1cab422a0b6b554077a361f8419cdf122a9f9630621b4f66000805160206128b083398151915261143285826370a08231306040518263ffffffff1660e060020a0281526004016113fd91906127f2565b602060405180830381600087803b151561141657600080fd5b5af1151561142357600080fd5b505050604051805190506125f1565b6000805160206128d083398151915261145d600254670de0b6b3a764000003610ae389600754612248565b6040518563ffffffff1660e060020a02815260040161147f9493929190612800565b602060405180830381600087803b151561149857600080fd5b5af115156114a557600080fd5b505050604051805191506000805160206128d0833981519152905063a9059cbb33836040518363ffffffff1660e060020a0281526004016114e7929190612792565b602060405180830381600087803b151561150057600080fd5b5af1151561150d57600080fd5b50505060405180519050151561152257600080fd5b505050505050565b73ee419971e63734fed782cfe49110b1544ae8a77381565b61155833600035600160e060020a03191661214e565b151561156357600080fd5b600435602435808233600160a060020a031660008035600160e060020a031916903490366040516115969392919061284c565b60405180910390a450506001805474ff000000000000000000000000000000000000000019169055565b600054600160a060020a031681565b7393ffc328d601c4c5e9cc3c8d257e9afdaf5b0ac081565b60015460009060a060020a900460ff161561160157600080fd5b61166d6000805160206128d08339815191526370a08231336040518263ffffffff1660e060020a0281526004016116389190612734565b602060405180830381600087803b151561165157600080fd5b5af1151561165e57600080fd5b505050604051805190506108ad565b905090565b60008060008061168e33600035600160e060020a03191661214e565b151561169957600080fd5b60015460a060020a900460ff16156116b057600080fd5b8493506000805160206128f083398151915263f7c8d634856040518263ffffffff1660e060020a0281526004016116e791906127bb565b602060405180830381600087803b151561170057600080fd5b5af1151561170d57600080fd5b50505060405180519350506000831115611794576000805160206128d08339815191526323b872dd3330866040518463ffffffff1660e060020a02815260040161175993929190612742565b602060405180830381600087803b151561177257600080fd5b5af1151561177f57600080fd5b50505060405180519050151561179457600080fd5b6000805160206128f0833981519152631f3634ed856040518263ffffffff1660e060020a0281526004016117c891906127bb565b602060405180830381600087803b15156117e157600080fd5b5af115156117ee57600080fd5b505050604051805192506000805160206128f0833981519152905063b84d2106856040518263ffffffff1660e060020a02815260040161182e91906127bb565b600060405180830381600087803b151561184757600080fd5b5af1151561185457600080fd5b5050506000805160206128f0833981519152600160a060020a031663454a2ab3836040518263ffffffff1660e060020a02815260040161189491906127bb565b602060405180830381600087803b15156118ad57600080fd5b5af115156118ba57600080fd5b505050604051805191506000805160206128f08339815191529050637f8661a1836040518263ffffffff1660e060020a0281526004016118fa91906127bb565b600060405180830381600087803b151561191357600080fd5b5af1151561192057600080fd5b506000805160206128b08339815191529150632e1a7d4d905061196383836370a08231306040518263ffffffff1660e060020a0281526004016113fd91906127f2565b6040518263ffffffff1660e060020a02815260040161198291906127bb565b600060405180830381600087803b151561199b57600080fd5b5af115156119a857600080fd5b50505033600160a060020a03166108fc6119cc8330600160a060020a0316316125f1565b9081150290604051600060405180830381858888f1935050505015156119f157600080fd5b5050505050565b60015460009060a060020a900460ff1615611a1257600080fd5b600354341015611a2157600080fd5b6000805160206128b083398151915263d0e30db0346040518263ffffffff1660e060020a0281526004016000604051808303818588803b1515611a6357600080fd5b5af11515611a7057600080fd5b505050506000805160206128f0833981519152600160a060020a031663fcfff16f6040518163ffffffff1660e060020a028152600401602060405180830381600087803b1515611abf57600080fd5b5af11515611acc57600080fd5b505050604051805191506000805160206128f0833981519152905063e47e7e66670de0b6b3a76400006040518263ffffffff1660e060020a028152600401611b1491906127bb565b602060405180830381600087803b1515611b2d57600080fd5b5af11515611b3a57600080fd5b505050604051805160055550611b508134612270565b6000805160206128f083398151915263baa8529c82336040518363ffffffff1660e060020a028152600401611b869291906127c9565b600060405180830381600087803b1515611b9f57600080fd5b5af11515611bac57600080fd5b50505090565b60035481565b60015460009060a060020a900460ff1615611bd257600080fd5b600354341015611be157600080fd5b633b9aca006000805160206128f083398151915263ab0783da6040518163ffffffff1660e060020a028152600401602060405180830381600087803b1515611c2857600080fd5b5af11515611c3557600080fd5b50505060405180519050811515611c4857fe5b0460065573a944bd4b25c9f186a846fd5668941aa3d3b8425f6357de26a46040518163ffffffff1660e060020a028152600401602060405180830381600087803b1515611c9457600080fd5b5af11515611ca157600080fd5b5050506040518051600755506000805160206128f083398151915263e47e7e66670de0b6b3a76400006040518263ffffffff1660e060020a028152600401611ce991906127bb565b602060405180830381600087803b1515611d0257600080fd5b5af11515611d0f57600080fd5b5050506040518051600555506000805160206128b083398151915263d0e30db0346040518263ffffffff1660e060020a0281526004016000604051808303818588803b1515611d5d57600080fd5b5af11515611d6a57600080fd5b505050506000805160206128f0833981519152600160a060020a031663fcfff16f6040518163ffffffff1660e060020a028152600401602060405180830381600087803b1515611db957600080fd5b5af11515611dc657600080fd5b505050604051805190509050611ddc8134612270565b611de581612378565b15611b5057611ddc565b611e0533600035600160e060020a03191661214e565b1515611e1057600080fd5b6000805160206128b083398151915263095ea7b36000805160206128f08339815191526000196040518363ffffffff1660e060020a028152600401611e5692919061283e565b602060405180830381600087803b1515611e6f57600080fd5b5af11515611e7c57600080fd5b50505060405180515073f4d791139ce033ad35db2b2201435fad668b1b64905063095ea7b36000805160206128f08339815191526000196040518363ffffffff1660e060020a028152600401611ed392919061283e565b602060405180830381600087803b1515611eec57600080fd5b5af11515611ef957600080fd5b5050506040518051506000805160206128d0833981519152905063095ea7b36000805160206128f08339815191526000196040518363ffffffff1660e060020a028152600401611f4a92919061283e565b602060405180830381600087803b1515611f6357600080fd5b5af11515611f7057600080fd5b5050506040518051506000805160206128d0833981519152905063095ea7b3738cf1cab422a0b6b554077a361f8419cdf122a9f96000196040518363ffffffff1660e060020a028152600401611fc792919061283e565b602060405180830381600087803b1515611fe057600080fd5b5af11515611fed57600080fd5b5050506040518051506000805160206128b0833981519152905063095ea7b3738cf1cab422a0b6b554077a361f8419cdf122a9f96000196040518363ffffffff1660e060020a02815260040161068792919061283e565b61205a33600035600160e060020a03191661214e565b151561206557600080fd5b6000805160206128d083398151915263a9059cbb33826370a08231306040518263ffffffff1660e060020a02815260040161063791906127f2565b6120b633600035600160e060020a03191661214e565b15156120c157600080fd5b670de0b6b3a764000081106120d557600080fd5b600255565b6000805160206128d083398151915281565b61210233600035600160e060020a03191661214e565b151561210d57600080fd5b73f4d791139ce033ad35db2b2201435fad668b1b6463a9059cbb33826370a08231306040518263ffffffff1660e060020a02815260040161063791906127f2565b600030600160a060020a031683600160a060020a03161415612172575060016107be565b600154600160a060020a0384811691161415612190575060016107be565b600054600160a060020a031615156121aa575060006107be565b600054600160a060020a031663b70096138430856040518463ffffffff1660e060020a0281526004016121df9392919061276a565b602060405180830381600087803b15156121f857600080fd5b5af1151561220557600080fd5b5050506040518051949350505050565b60008161223761222d85670de0b6b3a764000061260a565b6002855b04612632565b81151561224057fe5b049392505050565b6000670de0b6b3a7640000612237612260858561260a565b6002670de0b6b3a7640000612231565b600061227e82600554612215565b90506000805160206128f083398151915263049878f3826040518263ffffffff1660e060020a0281526004016122b491906127bb565b600060405180830381600087803b15156122cd57600080fd5b5af115156122da57600080fd5b506000805160206128f0833981519152915063b3b77a519050846123328473f4d791139ce033ad35db2b2201435fad668b1b646370a08231306040518263ffffffff1660e060020a0281526004016113fd91906127f2565b6040518363ffffffff1660e060020a0281526004016123529291906127e4565b600060405180830381600087803b151561236b57600080fd5b5af1151561152257600080fd5b600080808080806000805160206128f083398151915263f7c8d634886040518263ffffffff1660e060020a0281526004016123b391906127bb565b602060405180830381600087803b15156123cc57600080fd5b5af115156123d957600080fd5b505050604051805195506000805160206128f08339815191529050631f3634ed886040518263ffffffff1660e060020a02815260040161241991906127bb565b602060405180830381600087803b151561243257600080fd5b5af1151561243f57600080fd5b50505060405180519050935060075460085410151561245d57600080fd5b61247461246c60085486612248565b600654612215565b925082851061248657600095506125e7565b6124908386612642565b60045490925082106125e2576000805160206128f083398151915263440f19ba88846040518363ffffffff1660e060020a0281526004016124d29291906127e4565b600060405180830381600087803b15156124eb57600080fd5b5af115156124f857600080fd5b50738cf1cab422a0b6b554077a361f8419cdf122a9f99150630621b4f690506000805160206128d083398151915261255085826370a08231306040518263ffffffff1660e060020a0281526004016113fd91906127f2565b6000805160206128b083398151915261257b600254670de0b6b3a764000003610ae389600754612215565b6040518563ffffffff1660e060020a02815260040161259d9493929190612800565b602060405180830381600087803b15156125b657600080fd5b5af115156125c357600080fd5b5050506040518051905090506125d98782612270565b600195506125e7565b600095505b5050505050919050565b6000818311156126015781612603565b825b9392505050565b600081158061262757505080820282828281151561262457fe5b04145b15156107be57600080fd5b808201828110156107be57600080fd5b808203828111156107be57600080fd5b6000612603823561286d565b6000612603823561288e565b6000612603823561287e565b60006020828403121561268857600080fd5b60006126948484612652565b949350505050565b6000602082840312156126ae57600080fd5b6000612694848461265e565b6000602082840312156126cc57600080fd5b6000612694848461266a565b6126e18161286d565b82525050565b6126e181612879565b6126e18161287e565b6126e181612881565b6000828452602084019350612718838584612899565b612721836128a5565b9093019392505050565b6126e18161288e565b602081016107be82846126d8565b6060810161275082866126d8565b61275d602083018561272b565b61269460408301846126f0565b6060810161277882866126d8565b612785602083018561272b565b61269460408301846126f9565b604081016127a082856126d8565b61260360208301846126f0565b602081016107be82846126e7565b602081016107be82846126f0565b604081016127d782856126f0565b61260360208301846126d8565b604081016127a082856126f0565b602081016107be828461272b565b6080810161280e828761272b565b61281b60208301866126f0565b612828604083018561272b565b61283560608301846126f0565b95945050505050565b604081016127a0828561272b565b6040810161285a82866126f0565b8181036020830152612835818486612702565b600160a060020a031690565b151590565b90565b600160e060020a03191690565b60006107be8261286d565b82818337506000910152565b601f01601f1916905600000000000000000000000000d0a1e359811322d97991e03f863a0c30c2cf029c000000000000000000000000c4375b7de8af5a38a93548eb8453a498222c4ff2000000000000000000000000a71937147b55deb8a530c7229c442fd3f31b7db2a265627a7a72305820024cd50fac00bcf2121361305fd21e781b01ec64e07fddb13dee35516a0144ca6c6578706572696d656e74616cf50037",
  "source": "pragma solidity^0.4.21;\npragma experimental ABIEncoderV2;\n\nimport \"./lib/ds-thing/thing.sol\";\nimport \"./lib/ds-token/token.sol\";\nimport \"./lib/ds-stop/stop.sol\";\nimport \"./lib/ds-proxy/proxy.sol\";\n\ninterface DSValue {\n    function peek() external constant returns (bytes32, bool);\n    function read() external constant returns (bytes32);\n}\n\ncontract TubInterface {\n\n    function mat() public view returns(uint);\n\n    // function cups(bytes32 cup) public view returns(Cup);\n\n    function ink(bytes32 cup) public view returns (uint);\n    function tab(bytes32 cup) public returns (uint);\n    function rap(bytes32 cup) public returns (uint);\n\n    //--Collateral-wrapper----------------------------------------------\n    // Wrapper ratio (gem per skr)\n    function per() public view returns (uint ray);\n    // Join price (gem per skr)\n    function ask(uint wad) public view returns (uint);\n    // Exit price (gem per skr)\n    function bid(uint wad) public view returns (uint);\n    function join(uint wad) public;\n    function exit(uint wad) public;\n\n    //--CDP-risk-indicator----------------------------------------------\n    // Abstracted collateral price (ref per skr)\n    function tag() public view returns (uint wad);\n    // Returns true if cup is well-collateralized\n    function safe(bytes32 cup) public returns (bool);\n\n    //--CDP-operations--------------------------------------------------\n    function open() public returns (bytes32 cup);\n    function give(bytes32 cup, address guy) public;\n    function lock(bytes32 cup, uint wad) public;\n    function free(bytes32 cup, uint wad) public;\n    function draw(bytes32 cup, uint wad) public;\n    function wipe(bytes32 cup, uint wad) public;\n    function shut(bytes32 cup) public;\n    function bite(bytes32 cup) public;\n}\n\ninterface OtcInterface {\n    function sellAllAmount(address, uint, address, uint) public returns (uint);\n    function buyAllAmount(address, uint, address, uint) public returns (uint);\n    function getPayAmount(address, address, uint) public constant returns (uint);\n}\n\ninterface ProxyCreationAndExecute {\n    \n    function createAndSellAllAmount(\n        DSProxyFactory factory, \n        OtcInterface otc, \n        ERC20 payToken, \n        uint payAmt, \n        ERC20 buyToken,\n        uint minBuyAmt) public \n        returns (DSProxy proxy, uint buyAmt);\n\n    function createAndSellAllAmountPayEth(\n        DSProxyFactory factory, \n        OtcInterface otc, \n        ERC20 buyToken, \n        uint minBuyAmt) public payable returns (DSProxy proxy, uint buyAmt);\n\n    function createAndSellAllAmountBuyEth(\n        DSProxyFactory factory, \n        OtcInterface otc, \n        ERC20 payToken, \n        uint payAmt, \n        uint minBuyAmt) public returns (DSProxy proxy, uint wethAmt);\n\n    function createAndBuyAllAmount(\n        DSProxyFactory factory, \n        OtcInterface otc, \n        ERC20 buyToken, \n        uint buyAmt, \n        ERC20 payToken, \n        uint maxPayAmt) public returns (DSProxy proxy, uint payAmt);\n\n    function createAndBuyAllAmountPayEth(\n        DSProxyFactory factory, \n        OtcInterface otc, \n        ERC20 buyToken, \n        uint buyAmt) public payable returns (DSProxy proxy, uint wethAmt);\n\n    function createAndBuyAllAmountBuyEth(\n        DSProxyFactory factory, \n        OtcInterface otc, \n        uint wethAmt, \n        ERC20 payToken, \n        uint maxPayAmt) public returns (DSProxy proxy, uint payAmt);\n} \n\ninterface OasisDirectInterface {\n    \n    function sellAllAmount(\n        OtcInterface otc, \n        ERC20 payToken, \n        uint payAmt, \n        ERC20 buyToken,\n        uint minBuyAmt) public \n        returns (uint buyAmt);\n\n    function sellAllAmountPayEth(\n        OtcInterface otc, \n        ERC20 buyToken, \n        uint minBuyAmt) public payable returns (uint buyAmt);\n\n    function sellAllAmountBuyEth(\n        OtcInterface otc, \n        ERC20 payToken, \n        uint payAmt, \n        uint minBuyAmt) public returns (uint wethAmt);\n\n    function buyAllAmount(\n        OtcInterface otc, \n        ERC20 buyToken, \n        uint buyAmt, \n        ERC20 payToken, \n        uint maxPayAmt) public returns (uint payAmt);\n\n    function buyAllAmountPayEth(\n        OtcInterface otc, \n        ERC20 buyToken, \n        uint buyAmt) public payable returns (uint wethAmt);\n\n    function buyAllAmountBuyEth(\n        OtcInterface otc, \n        uint wethAmt, \n        ERC20 payToken, \n        uint maxPayAmt) public returns (uint payAmt);\n}\n\ncontract WETH is ERC20 {\n    function deposit() public payable;\n    function withdraw(uint wad) public;\n}\n\ncontract CDPer is DSStop, DSMath {\n\n    ///Main Net\\\\\\\n    // uint public slippage = 2*10**16;//2%\n    // TubInterface public constant tub = TubInterface(0x448a5065aebb8e423f0896e6c5d525c040f59af3);\n    // DSToken public constant dai = DSToken(0x89d24A6b4CcB1B6fAA2625fE562bDD9a23260359);  // Stablecoin\n    // DSToken public constant skr = DSToken(0xf53AD2c6851052A81B42133467480961B2321C09);  // Abstracted collateral - PETH\n    // WETH public constant gem = WETH(0xC02aaA39b223FE8D0A0e5C4F27eAD9083C756Cc2);  // Underlying collateral - WETH\n    // DSValue public constant feed = DSValue(0x729D19f657BD0614b4985Cf1D82531c67569197B);  // Price feed\n    // OtcInterface public constant otc = OtcInterface(0x14FBCA95be7e99C15Cc2996c6C9d841e54B79425);\n    // DSProxyFactory public constant proxyFactory = DSProxyFactory(0x1043fBD15c10A3234664CBdd944A16A204F945E6);\n    // ProxyCreationAndExecute public constant proxyCreationAndExecute = ProxyCreationAndExecute(0x793EbBe21607e4F04788F89c7a9b97320773Ec59);\n    // address public constant oasisDirectProxy = 0x279594b6843014376a422ebb26a6eab7a30e36f0;\n\n    ///Kovan test net\\\\\\\n    uint public slippage = 99*10**16;//99%\n    TubInterface public constant tub = TubInterface(0xa71937147b55Deb8a530C7229C442Fd3F31b7db2);\n    DSToken public constant dai = DSToken(0xC4375B7De8af5a38a93548eb8453a498222C4fF2);  // Stablecoin\n    DSToken public constant skr = DSToken(0xf4d791139cE033Ad35DB2B2201435fAd668B1b64);  // Abstracted collateral - PETH\n    WETH public constant gem = WETH(0xd0A1E359811322d97991E03f863a0C30C2cF029C);  // Underlying collateral - WETH\n    DSValue public constant feed = DSValue(0xA944bd4b25C9F186A846fd5668941AA3d3B8425F);  // Price feed\n    OtcInterface public constant otc = OtcInterface(0x8cf1Cab422A0b6b554077A361f8419cDf122a9F9);\n    DSProxyFactory public constant proxyFactory = DSProxyFactory(0x93Ffc328d601c4c5E9cc3C8d257E9AFdAf5b0aC0);\n    ProxyCreationAndExecute public constant proxyCreationAndExecute = ProxyCreationAndExecute(0xEE419971E63734Fed782Cfe49110b1544ae8a773);\n    address public constant oasisDirectProxy = 0xe635F5F52220A114feA0985AbF7EC8144710507B;\n\n    uint public minETH = WAD / 20; //0.05 ETH\n    uint public minDai = WAD * 50; //50 Dai\n\n    function CDPer() public {\n\n    }\n\n    function init() public auth {\n        gem.approve(tub, uint(-1));\n        skr.approve(tub, uint(-1));\n        dai.approve(tub, uint(-1));\n        dai.approve(otc, uint(-1));\n        gem.approve(otc, uint(-1));\n    }\n\n    uint skRate;\n\n    function createAndJoinCDP() public stoppable payable returns(bytes32 id) {\n        // uint startingGem = gem.balanceOf(this);\n        // uint startingSkr = skr.balanceOf(this);\n        // uint startingDai = dai.balanceOf(this);\n\n        require(msg.value >= minETH);\n\n        gem.deposit.value(msg.value)();\n        id = tub.open();\n\n        skRate = tub.ask(WAD);\n        _joinCDP(id, msg.value);\n\n        tub.give(id, msg.sender);\n    }\n\n    function createAndJoinCDPAllDai(uint amount) public stoppable returns(bytes32 id) {\n        return createAndJoinCDPDai(dai.balanceOf(msg.sender));\n    }\n\n    function createAndJoinCDPDai(uint amount) public stoppable returns(bytes32 id) {\n        // uint startingGem = gem.balanceOf(this);\n        // uint startingSkr = skr.balanceOf(this);\n        // uint startingDai = dai.balanceOf(this);\n\n        require(amount >= minDai);\n        price = uint(feed.read());\n\n        require(dai.transferFrom(msg.sender, this, amount));\n        uint bought = otc.sellAllAmount(dai, amount,\n            gem, wmul(WAD - slippage, wdiv(amount, price)));\n\n        id = tub.open();\n\n        skRate = tub.ask(WAD);\n        _joinCDP(id, bought);\n\n        tub.give(id, msg.sender);\n    }\n    \n    function _joinCDP(bytes32 id, uint amount) internal {\n\n        \n        uint valueSkr = wdiv(amount, skRate);\n        tub.join(valueSkr); \n\n        tub.lock(id, min(valueSkr, skr.balanceOf(this)));\n    }\n\n    uint ratio;\n    uint price;\n\n    function createCDPLeveraged() public stoppable payable returns(bytes32 id) {\n\n        require(msg.value >= minETH);\n\n        ratio = tub.mat() / 10**9; //liquidation ratio\n        price = uint(feed.read());\n        skRate = tub.ask(WAD);\n\n        gem.deposit.value(msg.value)();\n\n        id = tub.open();\n        \n        _joinCDP(id, msg.value);//Initial join\n        while(_reinvest(id)) {}\n\n        tub.give(id, msg.sender);\n    }\n\n    uint public liquidationPriceWad = 320 * WAD;\n\n    function createCDPLeveragedAllDai() public stoppable returns(bytes32 id) {\n        return createCDPLeveragedDai(dai.balanceOf(msg.sender)); \n    }\n    \n    function createCDPLeveragedDai(uint amount) public stoppable returns(bytes32 id) {\n\n        require(msg.value >= minETH);\n\n        ratio = tub.mat() / 10**9; //liquidation ratio\n        price = uint(feed.read());\n        skRate = tub.ask(WAD);\n\n        require(dai.transferFrom(msg.sender, this, amount));\n        uint bought = otc.sellAllAmount(dai, amount,\n            gem, wmul(WAD - slippage, wdiv(amount, price)));\n\n        id = tub.open();\n        \n        _joinCDP(id, msg.value);//Initial join\n        while(_reinvest(id)) {}\n\n        tub.give(id, msg.sender);\n    }\n\n\n    function _reinvest(bytes32 id) internal returns(bool success) {\n        \n        // Cup memory cup = tab.cups(id);\n        uint debt = tub.tab(id);\n        uint ink = tub.ink(id);// locked collateral\n        \n        require(liquidationPriceWad < price);\n\n        uint maxInvest = wdiv(wmul(liquidationPriceWad, ink), ratio);\n        \n        if(debt >= maxInvest) {\n            return false;\n        }\n        \n        uint leftOver = sub(maxInvest, debt);\n        \n        if(leftOver >= minDai) {\n            tub.draw(id, leftOver);\n\n            uint bought = otc.sellAllAmount(dai, min(leftOver, dai.balanceOf(this)),\n                gem, wmul(WAD - slippage, wdiv(leftOver, price)));\n            \n            _joinCDP(id, bought);\n\n            return true;\n        } else {\n            return false;\n        }\n    }\n\n    function shut(uint _id) public auth stoppable {\n        bytes32 id = bytes32(_id);\n        uint debt = tub.tab(id);\n        if (debt > 0) {\n            require(dai.transferFrom(msg.sender, this, debt));\n        }\n        uint ink = tub.ink(id);// locked collateral\n        tub.shut(id);\n        uint gemBalance = tub.bid(ink);\n        tub.exit(ink);\n\n        gem.withdraw(min(gemBalance, gem.balanceOf(this)));\n        \n        msg.sender.transfer(min(gemBalance, address(this).balance));\n    }\n\n    function shutAndSell(uint _id) public auth stoppable {\n        bytes32 id = bytes32(_id);\n        uint debt = tub.tab(id);\n        if (debt > 0) {\n            require(dai.transferFrom(msg.sender, this, debt));\n        }\n        uint ink = tub.ink(id);// locked collateral\n        tub.shut(id);\n        uint gemBalance = tub.bid(ink);\n        tub.exit(ink);\n\n        price = uint(feed.read());\n\n        uint bought = otc.sellAllAmount(gem, min(gemBalance, gem.balanceOf(this)), \n            dai, wmul(WAD - slippage, wmul(gemBalance, price)));\n        \n        require(dai.transfer(msg.sender, bought));\n    }\n\n    function setSlippage(uint slip) public auth {\n        require(slip < WAD);\n        slippage = slip;\n    }\n\n    function setLiqPrice(uint liq) public auth {\n        \n        liquidationPriceWad = liq;\n    }\n\n    function giveMe(uint id) public auth {\n        tub.give(bytes32(id), msg.sender);\n    }\n\n    function giveMeWETH() public auth {\n        gem.transfer(msg.sender, gem.balanceOf(this));\n    }\n\n    function giveMeDai() public auth {\n        dai.transfer(msg.sender, dai.balanceOf(this));\n    }\n\n    function giveMePETH() public auth {\n        skr.transfer(msg.sender, skr.balanceOf(this));\n    }\n\n    function giveMeToken(DSToken token) public auth {\n        token.transfer(msg.sender, token.balanceOf(this));\n    }\n\n    function giveETH() public auth {\n        msg.sender.transfer(address(this).balance);\n    }\n\n    // // Combines 'self' and 'other' into a single array.\n    // // Returns the concatenated arrays:\n    // //  [self[0], self[1], ... , self[self.length - 1], other[0], other[1], ... , other[other.length - 1]]\n    // // The length of the new array is 'self.length + other.length'\n    // function concat(bytes memory self, bytes memory other) internal pure returns (bytes memory) {\n    //     bytes memory ret = new bytes(self.length + other.length);\n    //     var (src, srcLen) = Memory.fromBytes(self);\n    //     var (src2, src2Len) = Memory.fromBytes(other);\n    //     var (dest,) = Memory.fromBytes(ret);\n    //     var dest2 = dest + src2Len;\n    //     Memory.copy(src, dest, srcLen);\n    //     Memory.copy(src2, dest2, src2Len);\n    //     return ret;\n    // }\n\n}",
  "sourcePath": "/home/paskal/cdper/contracts/cdper.sol",
  "compiler": {
    "name": "solc",
    "version": "0.4.21+commit.dfe3193c.Emscripten.clang"
  },
  "schemaVersion": "2.0.0",
  "updatedAt": "2018-04-18T02:07:49.719Z"
}