{
  "contractName": "DSGroupFactory",
  "abi": [
    {
      "constant": true,
      "inputs": [
        {
          "name": "",
          "type": "address"
        }
      ],
      "name": "isGroup",
      "outputs": [
        {
          "name": "",
          "type": "bool"
        }
      ],
      "payable": false,
      "stateMutability": "view",
      "type": "function"
    },
    {
      "anonymous": true,
      "inputs": [
        {
          "indexed": true,
          "name": "sig",
          "type": "bytes4"
        },
        {
          "indexed": true,
          "name": "guy",
          "type": "address"
        },
        {
          "indexed": true,
          "name": "foo",
          "type": "bytes32"
        },
        {
          "indexed": true,
          "name": "bar",
          "type": "bytes32"
        },
        {
          "indexed": false,
          "name": "wad",
          "type": "uint256"
        },
        {
          "indexed": false,
          "name": "fax",
          "type": "bytes"
        }
      ],
      "name": "LogNote",
      "type": "event"
    },
    {
      "constant": false,
      "inputs": [
        {
          "name": "members",
          "type": "address[]"
        },
        {
          "name": "quorum",
          "type": "uint256"
        },
        {
          "name": "window",
          "type": "uint256"
        }
      ],
      "name": "newGroup",
      "outputs": [
        {
          "name": "group",
          "type": "address"
        }
      ],
      "payable": false,
      "stateMutability": "nonpayable",
      "type": "function"
    }
  ],
  "bytecode": "0x6060604052341561000f57600080fd5b6112aa8061001e6000396000f30060606040526004361061004b5763ffffffff7c010000000000000000000000000000000000000000000000000000000060003504166336f78d7781146100505780639e0cc3c4146100cf575b600080fd5b341561005b57600080fd5b6100a660046024813581810190830135806020818102016040519081016040528093929190818152602001838360200280828437509496505084359460200135935061010f92505050565b60405173ffffffffffffffffffffffffffffffffffffffff909116815260200160405180910390f35b34156100da57600080fd5b6100fb73ffffffffffffffffffffffffffffffffffffffff6004351661023a565b604051901515815260200160405180910390f35b6000600435602435808273ffffffffffffffffffffffffffffffffffffffff33167fffffffff0000000000000000000000000000000000000000000000000000000086351634873660405183815260406020820181815290820183905260608201848480828437820191505094505050505060405180910390a485858561019461024f565b8080602001848152602001838152602001828103825285818151815260200191508051906020019060200280838360005b838110156101dd5780820151838201526020016101c5565b50505050905001945050505050604051809103906000f080151561020057600080fd5b73ffffffffffffffffffffffffffffffffffffffff81166000908152602081905260409020805460ff191660011790559695505050505050565b60006020819052908152604090205460ff1681565b60405161101f806102608339019056006060604052341561000f57600080fd5b60405161101f38038061101f83398101604052808051820191906020018051919060200180519150600090508084805161004d9291602001906100bf565b50506001829055600281905560005b6000548110156100b657600160066000808481548110151561007a57fe5b600091825260208083209190910154600160a060020a031683528201929092526040019020805460ff191691151591909117905560010161005c565b5050505061014d565b828054828255906000526020600020908101928215610116579160200282015b828111156101165782518254600160a060020a031916600160a060020a0391909116178255602092909201916001909101906100df565b50610122929150610126565b5090565b61014a91905b80821115610122578054600160a060020a031916815560010161012c565b90565b610ec38061015c6000396000f3006060604052600436106101275763ffffffff7c010000000000000000000000000000000000000000000000000000000060003504166311aee380811461012c5780631703a0181461015157806329da57381461016457806331c2bd0b14610177578063461645bf146101d85780634e831d7a146101eb5780635a9b0b89146102215780635daf08ca1461025f5780637e2bef391461029157806383240f831461031e5780639811c7c1146103dc578063a230c524146103f2578063b9774f7b14610411578063ba0179b514610427578063ba065e1f1461043f578063c40dc8ec14610455578063c5a46ee61461046b578063d0e30db014610481578063dfffcbdb14610489578063ed684cc61461049f578063f3ac2732146104b5578063f6d5959b146104cb575b600080fd5b341561013757600080fd5b61013f610520565b60405190815260200160405180910390f35b341561015c57600080fd5b61013f610527565b341561016f57600080fd5b61013f61052d565b341561018257600080fd5b61013f60048035600160a060020a03169060446024803590810190830135806020601f82018190048102016040519081016040528181529291906020840183838082843750949650509335935061053392505050565b34156101e357600080fd5b61013f6106ce565b34156101f657600080fd5b61020d600435600160a060020a03602435166106d4565b604051901515815260200160405180910390f35b341561022c57600080fd5b6102346106f4565b6040518085815260200184815260200183815260200182815260200194505050505060405180910390f35b341561026a57600080fd5b610275600435610706565b604051600160a060020a03909116815260200160405180910390f35b341561029c57600080fd5b6102a760043561072e565b60405160208082528190810183818151815260200191508051906020019080838360005b838110156102e35780820151838201526020016102cb565b50505050905090810190601f1680156103105780820380516001836020036101000a031916815260200191505b509250505060405180910390f35b341561032957600080fd5b6103346004356107ec565b604051600160a060020a038716815260408101859052606081018490526080810183905281151560a082015260c06020820181815290820187818151815260200191508051906020019080838360005b8381101561039c578082015183820152602001610384565b50505050905090810190601f1680156103c95780820380516001836020036101000a031916815260200191505b5097505050505050505060405180910390f35b34156103e757600080fd5b6102756004356108d7565b34156103fd57600080fd5b61020d600160a060020a03600435166108f2565b341561041c57600080fd5b61013f600435610907565b341561043257600080fd5b61043d60043561091c565b005b341561044a57600080fd5b61020d600435610a76565b341561046057600080fd5b61013f600435610a89565b341561047657600080fd5b61013f600435610a9f565b61043d610ab4565b341561049457600080fd5b61020d600435610b0e565b34156104aa57600080fd5b61043d600435610b26565b34156104c057600080fd5b61020d600435610cfe565b34156104d657600080fd5b6104e1600435610d14565b6040519485526020850193909352901515604080850191909152600160a060020a039091166060840152608083019190915260a0909101905180910390f35b6000545b90565b60015481565b60035481565b600160a060020a03331660009081526006602052604081205460ff16151561055757fe5b600435602435808233600160a060020a031660008035600160e060020a0319169034903660405183815260406020820181815290820183905260608201848480828437820191505094505050505060405180910390a4600380546001908101918290556000828152600460205260409020805473ffffffffffffffffffffffffffffffffffffffff1916600160a060020a038a1617815591945001858051610603929160200190610ded565b5060008381526004602081905260409182902060028082018890555442019101557f2c9c30f6e09e4fa68cd8d1f88a745cdfcd8d05a9c5729eb5e7f4bf0078db004490849087905182815260406020820181815290820183818151815260200191508051906020019080838360005b8381101561068a578082015183820152602001610672565b50505050905090810190601f1680156106b75780820380516001836020036101000a031916815260200191505b50935050505060405180910390a150509392505050565b60025481565b600560209081526000928352604080842090915290825290205460ff1681565b60015460005460025460035490919293565b600080548290811061071457fe5b600091825260209091200154600160a060020a0316905081565b610736610e6b565b600460008381526020019081526020016000206001018054600181600116156101000203166002900480601f0160208091040260200160405190810160405280929190818152602001828054600181600116156101000203166002900480156107e05780601f106107b5576101008083540402835291602001916107e0565b820191906000526020600020905b8154815290600101906020018083116107c357829003601f168201915b50505050509050919050565b60046020528060005260406000206000915090508060000160009054906101000a9004600160a060020a031690806001018054600181600116156101000203166002900480601f0160208091040260200160405190810160405280929190818152602001828054600181600116156101000203166002900480156108b15780601f10610886576101008083540402835291602001916108b1565b820191906000526020600020905b81548152906001019060200180831161089457829003601f168201915b505050506002830154600384015460048501546005909501549394919390925060ff1686565b600090815260046020526040902054600160a060020a031690565b60066020526000908152604090205460ff1681565b60009081526004602052604090206003015490565b600160a060020a03331660009081526006602052604090205460ff16151561094057fe5b8061094a81610a76565b1561095157fe5b61095a81610b0e565b1561096157fe5b600435602435808233600160a060020a031660008035600160e060020a0319169034903660405183815260406020820181815290820183905260608201848480828437820191505094505050505060405180910390a46000848152600560209081526040808320600160a060020a033316845290915290205460ff16156109e457fe5b6000848152600560209081526040808320600160a060020a03339081168552908352818420805460ff1916600190811790915588855260049093529281902060030180549092019091557f6f220d98c15dbd07fdc24781b682ea34f92411fc61b83c761dd927afbe02d3fd91869151918252600160a060020a031660208201526040908101905180910390a150505050565b6000610a8182610a89565b421192915050565b6000908152600460208190526040909120015490565b60009081526004602052604090206002015490565b600435602435808233600160a060020a031660008035600160e060020a0319169034903660405183815260406020820181815290820183905260608201848480828437820191505094505050505060405180910390a45050565b60009081526004602052604090206005015460ff1690565b600160a060020a03331660009081526006602052604090205460ff161515610b4a57fe5b80610b5481610a76565b15610b5b57fe5b610b6481610b0e565b15610b6b57fe5b600435602435808233600160a060020a031660008035600160e060020a0319169034903660405183815260406020820181815290820183905260608201848480828437820191505094505050505060405180910390a4610bca84610cfe565b1515610bd257fe5b60008481526004602090815260409182902060058101805460ff1916600190811790915581549181018054610cc595600160a060020a0390941694919360026000199483161561010002949094019091169290920491601f8301829004820290910190519081016040528092919081815260200182805460018160011615610100020316600290048015610ca75780601f10610c7c57610100808354040283529160200191610ca7565b820191906000526020600020905b815481529060010190602001808311610c8a57829003601f168201915b5050506000898152600460205260409020600201549150610d519050565b7fcdeba0448cafa891383055f46f2fec420e049fab5171b5b30b5458c0320f68fb8460405190815260200160405180910390a150505050565b6000600154610d0c83610907565b101592915050565b6000908152600460208190526040909120600381015491810154600582015482546002909301549394919360ff90911692600160a060020a031691565b610d5c838383610d6c565b1515610d6757600080fd5b505050565b600083600160a060020a0316828460405180828051906020019080838360005b83811015610da4578082015183820152602001610d8c565b50505050905090810190601f168015610dd15780820380516001836020036101000a031916815260200191505b5091505060006040518083038185875af1979650505050505050565b828054600181600116156101000203166002900490600052602060002090601f016020900481019282601f10610e2e57805160ff1916838001178555610e5b565b82800160010185558215610e5b579182015b82811115610e5b578251825591602001919060010190610e40565b50610e67929150610e7d565b5090565b60206040519081016040526000815290565b61052491905b80821115610e675760008155600101610e835600a165627a7a72305820d7c82e42292eb2a5718910a723c703c007e936117e3bbfdd561d8b4baae3dcc10029a165627a7a7230582044249db310efd400b4c6c2467de0ded3a78000e8285d05d4693e3381f0e93a3a0029",
  "source": "/// group.sol -- simple m-of-n multisig implementation\n\n// Copyright (C) 2015, 2016  Ryan Casey <ryepdx@gmail.com>\n// Copyright (C) 2016, 2017  Daniel Brockman <daniel@brockman.se>\n\n// Licensed under the Apache License, Version 2.0 (the \"License\").\n// You may not use this file except in compliance with the License.\n\n// Unless required by applicable law or agreed to in writing, software\n// distributed under the License is distributed on an \"AS IS\" BASIS,\n// WITHOUT WARRANTIES OR CONDITIONS OF ANY KIND (express or implied).\n\npragma solidity ^0.4.11;\n\nimport \"../ds-exec/exec.sol\";\nimport \"../ds-note/note.sol\";\n\ncontract DSGroup is DSExec, DSNote {\n    address[]  public  members;\n    uint       public  quorum;\n    uint       public  window;\n    uint       public  actionCount;\n\n    mapping (uint => Action)                     public  actions;\n    mapping (uint => mapping (address => bool))  public  confirmedBy;\n    mapping (address => bool)                    public  isMember;\n\n    // Legacy events\n    event Proposed   (uint id, bytes calldata);\n    event Confirmed  (uint id, address member);\n    event Triggered  (uint id);\n\n    struct Action {\n        address  target;\n        bytes    calldata;\n        uint     value;\n\n        uint     confirmations;\n        uint     deadline;\n        bool     triggered;\n    }\n\n    function DSGroup(\n        address[]  members_,\n        uint       quorum_,\n        uint       window_\n    ) {\n        members  = members_;\n        quorum   = quorum_;\n        window   = window_;\n\n        for (uint i = 0; i < members.length; i++) {\n            isMember[members[i]] = true;\n        }\n    }\n\n    function memberCount() constant returns (uint) {\n        return members.length;\n    }\n\n    function target(uint id) constant returns (address) {\n        return actions[id].target;\n    }\n    function calldata(uint id) constant returns (bytes) {\n        return actions[id].calldata;\n    }\n    function value(uint id) constant returns (uint) {\n        return actions[id].value;\n    }\n\n    function confirmations(uint id) constant returns (uint) {\n        return actions[id].confirmations;\n    }\n    function deadline(uint id) constant returns (uint) {\n        return actions[id].deadline;\n    }\n    function triggered(uint id) constant returns (bool) {\n        return actions[id].triggered;\n    }\n\n    function confirmed(uint id) constant returns (bool) {\n        return confirmations(id) >= quorum;\n    }\n    function expired(uint id) constant returns (bool) {\n        return now > deadline(id);\n    }\n\n    function deposit() note payable {\n    }\n\n    function propose(\n        address  target,\n        bytes    calldata,\n        uint     value\n    ) onlyMembers note returns (uint id) {\n        id = ++actionCount;\n\n        actions[id].target    = target;\n        actions[id].calldata  = calldata;\n        actions[id].value     = value;\n        actions[id].deadline  = now + window;\n\n        Proposed(id, calldata);\n    }\n\n    function confirm(uint id) onlyMembers onlyActive(id) note {\n        assert(!confirmedBy[id][msg.sender]);\n\n        confirmedBy[id][msg.sender] = true;\n        actions[id].confirmations++;\n\n        Confirmed(id, msg.sender);\n    }\n\n    function trigger(uint id) onlyMembers onlyActive(id) note {\n        assert(confirmed(id));\n\n        actions[id].triggered = true;\n        exec(actions[id].target, actions[id].calldata, actions[id].value);\n\n        Triggered(id);\n    }\n\n    modifier onlyMembers {\n        assert(isMember[msg.sender]);\n        _;\n    }\n\n    modifier onlyActive(uint id) {\n        assert(!expired(id));\n        assert(!triggered(id));\n        _;\n    }\n\n    //------------------------------------------------------------------\n    // Legacy functions\n    //------------------------------------------------------------------\n\n    function getInfo() constant returns (\n        uint  quorum_,\n        uint  memberCount,\n        uint  window_,\n        uint  actionCount_\n    ) {\n        return (quorum, members.length, window, actionCount);\n    }\n\n    function getActionStatus(uint id) constant returns (\n        uint     confirmations,\n        uint     deadline,\n        bool     triggered,\n        address  target,\n        uint     value\n    ) {\n        return (\n            actions[id].confirmations,\n            actions[id].deadline,\n            actions[id].triggered,\n            actions[id].target,\n            actions[id].value\n        );\n    }\n}\n\ncontract DSGroupFactory is DSNote {\n    mapping (address => bool)  public  isGroup;\n\n    function newGroup(\n        address[]  members,\n        uint       quorum,\n        uint       window\n    ) note returns (DSGroup group) {\n        group = new DSGroup(members, quorum, window);\n        isGroup[group] = true;\n    }\n}\n",
  "sourcePath": "/home/paskal/cdper/contracts/lib/ds-group/group.sol",
  "compiler": {
    "name": "solc",
    "version": "0.4.21+commit.dfe3193c.Emscripten.clang"
  },
  "schemaVersion": "2.0.0",
  "updatedAt": "2018-04-16T13:30:05.657Z"
}