{
  "contractName": "DSGuardFactory",
  "abi": [
    {
      "constant": true,
      "inputs": [
        {
          "name": "",
          "type": "address"
        }
      ],
      "name": "isGuard",
      "outputs": [
        {
          "name": "",
          "type": "bool"
        }
      ],
      "payable": false,
      "stateMutability": "view",
      "type": "function"
    },
    {
      "constant": false,
      "inputs": [],
      "name": "newGuard",
      "outputs": [
        {
          "name": "guard",
          "type": "address"
        }
      ],
      "payable": false,
      "stateMutability": "nonpayable",
      "type": "function"
    }
  ],
  "bytecode": "0x6060604052341561000f57600080fd5b610a0a8061001e6000396000f30060606040526004361061004b5763ffffffff7c0100000000000000000000000000000000000000000000000000000000600035041663489c1202811461005057806365688cc914610090575b600080fd5b341561005b57600080fd5b61007c73ffffffffffffffffffffffffffffffffffffffff600435166100cc565b604051901515815260200160405180910390f35b341561009b57600080fd5b6100a36100e1565b60405173ffffffffffffffffffffffffffffffffffffffff909116815260200160405180910390f35b60006020819052908152604090205460ff1681565b60006100eb6101c7565b604051809103906000f080151561010157600080fd5b90508073ffffffffffffffffffffffffffffffffffffffff166313af4035336040517c010000000000000000000000000000000000000000000000000000000063ffffffff841602815273ffffffffffffffffffffffffffffffffffffffff9091166004820152602401600060405180830381600087803b151561018457600080fd5b5af1151561019157600080fd5b50505073ffffffffffffffffffffffffffffffffffffffff81166000908152602081905260409020805460ff1916600117905590565b604051610807806101d88339019056006060604090815260018054600160a060020a03191633600160a060020a0316908117909155907fce241d7ca1f669fee44b6fc00b8eba2df3bb514eed0f6f668f8f89096e81ed94905160405180910390a26107a88061005f6000396000f3006060604052600436106100a35763ffffffff7c010000000000000000000000000000000000000000000000000000000060003504166313af403581146100a85780632bc3217d146100c957806379d88d87146100f15780637a9e5e4b1461010d5780638da5cb5b1461012c578063a8542f661461015b578063b700961314610180578063bf7e214f146101c6578063cbeea68c146101d9578063f0217ce514610201575b600080fd5b34156100b357600080fd5b6100c7600160a060020a036004351661021d565b005b34156100d457600080fd5b6100c7600160a060020a036004358116906024351660443561029c565b34156100fc57600080fd5b6100c76004356024356044356102b8565b341561011857600080fd5b6100c7600160a060020a036004351661033a565b341561013757600080fd5b61013f6103b9565b604051600160a060020a03909116815260200160405180910390f35b341561016657600080fd5b61016e6103c8565b60405190815260200160405180910390f35b341561018b57600080fd5b6101b2600160a060020a0360043581169060243516600160e060020a0319604435166103ce565b604051901515815260200160405180910390f35b34156101d157600080fd5b61013f6105d5565b34156101e457600080fd5b6100c7600160a060020a03600435811690602435166044356105e4565b341561020c57600080fd5b6100c76004356024356044356105f7565b61023333600035600160e060020a03191661067c565b151561023e57600080fd5b6001805473ffffffffffffffffffffffffffffffffffffffff1916600160a060020a038381169190911791829055167fce241d7ca1f669fee44b6fc00b8eba2df3bb514eed0f6f668f8f89096e81ed9460405160405180910390a250565b6102b3600160a060020a03808516908416836102b8565b505050565b6102ce33600035600160e060020a03191661067c565b15156102d957600080fd5b6000838152600260209081526040808320858452825280832084845290915290819020805460ff191690558190839085907f95ba64c95d85e67ac83a0476c4a62ac2cf8ab2d0407545b8c9d79c3eefa62829905160405180910390a4505050565b61035033600035600160e060020a03191661067c565b151561035b57600080fd5b6000805473ffffffffffffffffffffffffffffffffffffffff1916600160a060020a038381169190911791829055167f1abebea81bfa2637f28358c371278fb15ede7ea8dd28d2e03b112ff6d936ada460405160405180910390a250565b600154600160a060020a031681565b60001981565b600160a060020a038084166000818152600260209081526040808320948716808452948252808320600160e060020a03198716845290915281205490929060ff168061043d575060008281526002602090815260408083208484528252808320600019845290915290205460ff165b806104755750600082815260026020908152604080832060001984528252808320600160e060020a03198816845290915290205460ff165b806104a0575060008281526002602090815260408083206000198452825280832090915290205460ff165b806104ed575060008181527f38b5b2ceac7637132d27514ffcf440b705287635075af7b8bd5adcaa6a4cc5bb60209081526040808320600160e060020a03198816845290915290205460ff165b80610532575060008181527f38b5b2ceac7637132d27514ffcf440b705287635075af7b8bd5adcaa6a4cc5bb60209081526040808320600019845290915290205460ff165b806105755750600160e060020a0319841660009081527f47fa60fbc027ac3984ea309688a33182f4193c478b40ba8d294eb2cd3ddc4d97602052604090205460ff165b806105cb57506000196000527f47fa60fbc027ac3984ea309688a33182f4193c478b40ba8d294eb2cd3ddc4d976020527ff423d1317b37667cd26005728bffa7c8b0499e133951fcf8e814d4fc5f4c98f65460ff165b9695505050505050565b600054600160a060020a031681565b6102b3600160a060020a03808516908416835b61060d33600035600160e060020a03191661067c565b151561061857600080fd5b6000838152600260209081526040808320858452825280832084845290915290819020805460ff191660011790558190839085907f6f50375045128971c5469d343039ba7b8e30a5b190453737b28bda6f7a306771905160405180910390a4505050565b600030600160a060020a031683600160a060020a031614156106a057506001610776565b600154600160a060020a03848116911614156106be57506001610776565b600054600160a060020a031615156106d857506000610776565b600054600160a060020a031663b70096138430856040517c010000000000000000000000000000000000000000000000000000000063ffffffff8616028152600160a060020a039384166004820152919092166024820152600160e060020a03199091166044820152606401602060405180830381600087803b151561075d57600080fd5b5af1151561076a57600080fd5b50505060405180519150505b929150505600a165627a7a723058201c3f34a0118577216e8f4453ff59b0d0ca6695e0cf33906ca4b285f6501887950029a165627a7a7230582069eec0fb0469c8377e7d76d92ff4d7e2bd7fb4a10c644d57889e0052fd6012270029",
  "source": "// guard.sol -- simple whitelist implementation of DSAuthority\n\n// Copyright (C) 2017  DappHub, LLC\n\n// This program is free software: you can redistribute it and/or modify\n// it under the terms of the GNU General Public License as published by\n// the Free Software Foundation, either version 3 of the License, or\n// (at your option) any later version.\n\n// This program is distributed in the hope that it will be useful,\n// but WITHOUT ANY WARRANTY; without even the implied warranty of\n// MERCHANTABILITY or FITNESS FOR A PARTICULAR PURPOSE.  See the\n// GNU General Public License for more details.\n\n// You should have received a copy of the GNU General Public License\n// along with this program.  If not, see <http://www.gnu.org/licenses/>.\n\npragma solidity ^0.4.13;\n\nimport \"../ds-auth/auth.sol\";\n\ncontract DSGuardEvents {\n    event LogPermit(\n        bytes32 indexed src,\n        bytes32 indexed dst,\n        bytes32 indexed sig\n    );\n\n    event LogForbid(\n        bytes32 indexed src,\n        bytes32 indexed dst,\n        bytes32 indexed sig\n    );\n}\n\ncontract DSGuard is DSAuth, DSAuthority, DSGuardEvents {\n    bytes32 constant public ANY = bytes32(uint(-1));\n\n    mapping (bytes32 => mapping (bytes32 => mapping (bytes32 => bool))) acl;\n\n    function canCall(\n        address src_, address dst_, bytes4 sig\n    ) public view returns (bool) \n    {\n        bytes32 src = bytes32(src_);\n        bytes32 dst = bytes32(dst_);\n\n        return acl[src][dst][sig]\n            || acl[src][dst][ANY]\n            || acl[src][ANY][sig]\n            || acl[src][ANY][ANY]\n            || acl[ANY][dst][sig]\n            || acl[ANY][dst][ANY]\n            || acl[ANY][ANY][sig]\n            || acl[ANY][ANY][ANY];\n    }\n\n    function permit(bytes32 src, bytes32 dst, bytes32 sig) public auth {\n        acl[src][dst][sig] = true;\n        emit LogPermit(src, dst, sig);\n    }\n\n    function forbid(bytes32 src, bytes32 dst, bytes32 sig) public auth {\n        acl[src][dst][sig] = false;\n        emit LogForbid(src, dst, sig);\n    }\n\n    function permit(address src, address dst, bytes32 sig) public {\n        permit(bytes32(src), bytes32(dst), sig);\n    }\n    function forbid(address src, address dst, bytes32 sig) public {\n        forbid(bytes32(src), bytes32(dst), sig);\n    }\n\n}\n\ncontract DSGuardFactory {\n    mapping (address => bool)  public  isGuard;\n\n    function newGuard() public returns (DSGuard guard) {\n        guard = new DSGuard();\n        guard.setOwner(msg.sender);\n        isGuard[guard] = true;\n    }\n}\n",
  "sourcePath": "/home/paskal/cdper/contracts/lib/ds-guard/guard.sol",
  "compiler": {
    "name": "solc",
    "version": "0.4.21+commit.dfe3193c.Emscripten.clang"
  },
  "schemaVersion": "2.0.0",
  "updatedAt": "2018-04-16T13:30:05.673Z"
}