{
  "contractName": "DSProxyCache",
  "abi": [
    {
      "constant": true,
      "inputs": [
        {
          "name": "_code",
          "type": "bytes"
        }
      ],
      "name": "read",
      "outputs": [
        {
          "name": "",
          "type": "address"
        }
      ],
      "payable": false,
      "stateMutability": "view",
      "type": "function"
    },
    {
      "constant": false,
      "inputs": [
        {
          "name": "_code",
          "type": "bytes"
        }
      ],
      "name": "write",
      "outputs": [
        {
          "name": "target",
          "type": "address"
        }
      ],
      "payable": false,
      "stateMutability": "nonpayable",
      "type": "function"
    }
  ],
  "bytecode": "0x6060604052341561000f57600080fd5b6102918061001e6000396000f30060606040526004361061004b5763ffffffff7c01000000000000000000000000000000000000000000000000000000006000350416637ed0c3b281146100505780638bf4515c146100ca575b600080fd5b341561005b57600080fd5b6100a160046024813581810190830135806020601f8201819004810201604051908101604052818152929190602084018383808284375094965061011b95505050505050565b60405173ffffffffffffffffffffffffffffffffffffffff909116815260200160405180910390f35b34156100d557600080fd5b6100a160046024813581810190830135806020601f820181900481020160405190810160405281815292919060208401838380828437509496506101d995505050505050565b6000808251602084016000f09150813b156001811461004b5750826040518082805190602001908083835b602083106101655780518252601f199092019160209182019101610146565b6001836020036101000a03801982511681845116179092525050509190910192506040915050519081900390206000908152602081905260409020805473ffffffffffffffffffffffffffffffffffffffff191673ffffffffffffffffffffffffffffffffffffffff841617905550919050565b600080826040518082805190602001908083835b6020831061020c5780518252601f1990920191602091820191016101ed565b6001836020036101000a038019825116818451161790925250505091909101925060409150505190819003902060009081526020819052604090205473ffffffffffffffffffffffffffffffffffffffff1693925050505600a165627a7a72305820a2bd847a4c9159301dea77896e306bc2ddd6e631a3fe3fc5a72aba165f7eef750029",
  "source": "// proxy.sol - execute actions atomically through the proxy's identity\n\n// Copyright (C) 2017  DappHub, LLC\n\n// This program is free software: you can redistribute it and/or modify\n// it under the terms of the GNU General Public License as published by\n// the Free Software Foundation, either version 3 of the License, or\n// (at your option) any later version.\n\n// This program is distributed in the hope that it will be useful,\n// but WITHOUT ANY WARRANTY; without even the implied warranty of\n// MERCHANTABILITY or FITNESS FOR A PARTICULAR PURPOSE.  See the\n// GNU General Public License for more details.\n\n// You should have received a copy of the GNU General Public License\n// along with this program.  If not, see <http://www.gnu.org/licenses/>.\n\npragma solidity ^0.4.13;\n\nimport \"../ds-auth/auth.sol\"; \nimport \"../ds-note/note.sol\";\n\n// DSProxy\n// Allows code execution using a persistant identity This can be very\n// useful to execute a sequence of atomic actions. Since the owner of\n// the proxy can be changed, this allows for dynamic ownership models\n// i.e. a multisig\ncontract DSProxy is DSAuth, DSNote {\n    DSProxyCache public cache;  // global cache for contracts\n\n    function DSProxy(address _cacheAddr) public {\n        require(setCache(_cacheAddr));\n    }\n\n    function() public payable {\n    }\n\n    // use the proxy to execute calldata _data on contract _code\n    function execute(bytes _code, bytes _data)\n        public\n        payable\n        returns (address target, bytes32 response)\n    {\n        target = cache.read(_code);\n        if (target == 0x0) {\n            // deploy contract & store its address in cache\n            target = cache.write(_code);\n        }\n\n        response = execute(target, _data);\n    }\n\n    function execute(address _target, bytes _data)\n        public\n        auth\n        note\n        payable\n        returns (bytes32 response)\n    {\n        require(_target != 0x0);\n\n        // call contract in current context\n        assembly {\n            let succeeded := delegatecall(sub(gas, 5000), _target, add(_data, 0x20), mload(_data), 0, 32)\n            response := mload(0)      // load delegatecall output\n            switch iszero(succeeded)\n            case 1 {\n                // throw if delegatecall failed\n                revert(0, 0)\n            }\n        }\n    }\n\n    //set new cache\n    function setCache(address _cacheAddr)\n        public\n        auth\n        note\n        returns (bool)\n    {\n        require(_cacheAddr != 0x0);        // invalid cache address\n        cache = DSProxyCache(_cacheAddr);  // overwrite cache\n        return true;\n    }\n}\n\n// DSProxyFactory\n// This factory deploys new proxy instances through build()\n// Deployed proxy addresses are logged\ncontract DSProxyFactory {\n    event Created(address indexed sender, address proxy, address cache);\n    mapping(address=>bool) public isProxy;\n    DSProxyCache public cache = new DSProxyCache();\n\n    // deploys a new proxy instance\n    // sets owner of proxy to caller\n    function build() public returns (DSProxy proxy) {\n        proxy = build(msg.sender);\n    }\n\n    // deploys a new proxy instance\n    // sets custom owner of proxy\n    function build(address owner) public returns (DSProxy proxy) {\n        proxy = new DSProxy(cache);\n        Created(owner, address(proxy), address(cache));\n        proxy.setOwner(owner);\n        isProxy[proxy] = true;\n    }\n}\n\n// DSProxyCache\n// This global cache stores addresses of contracts previously deployed\n// by a proxy. This saves gas from repeat deployment of the same\n// contracts and eliminates blockchain bloat.\n\n// By default, all proxies deployed from the same factory store\n// contracts in the same cache. The cache a proxy instance uses can be\n// changed.  The cache uses the sha3 hash of a contract's bytecode to\n// lookup the address\ncontract DSProxyCache {\n    mapping(bytes32 => address) cache;\n\n    function read(bytes _code) public view returns (address) {\n        bytes32 hash = keccak256(_code);\n        return cache[hash];\n    }\n\n    function write(bytes _code) public returns (address target) {\n        assembly {\n            target := create(0, add(_code, 0x20), mload(_code))\n            switch iszero(extcodesize(target))\n            case 1 {\n                // throw if contract failed to deploy\n                revert(0, 0)\n            }\n        }\n        bytes32 hash = keccak256(_code);\n        cache[hash] = target;\n    }\n}\n",
  "sourcePath": "/home/paskal/cdper/contracts/lib/ds-proxy/proxy.sol",
  "compiler": {
    "name": "solc",
    "version": "0.4.21+commit.dfe3193c.Emscripten.clang"
  },
  "schemaVersion": "2.0.0",
  "updatedAt": "2018-04-18T13:36:30.549Z"
}