{
  "contractName": "DSProxyFactory",
  "abi": [
    {
      "constant": true,
      "inputs": [
        {
          "name": "",
          "type": "address"
        }
      ],
      "name": "isProxy",
      "outputs": [
        {
          "name": "",
          "type": "bool"
        }
      ],
      "payable": false,
      "stateMutability": "view",
      "type": "function"
    },
    {
      "constant": true,
      "inputs": [],
      "name": "cache",
      "outputs": [
        {
          "name": "",
          "type": "address"
        }
      ],
      "payable": false,
      "stateMutability": "view",
      "type": "function"
    },
    {
      "anonymous": false,
      "inputs": [
        {
          "indexed": true,
          "name": "sender",
          "type": "address"
        },
        {
          "indexed": false,
          "name": "proxy",
          "type": "address"
        },
        {
          "indexed": false,
          "name": "cache",
          "type": "address"
        }
      ],
      "name": "Created",
      "type": "event"
    },
    {
      "constant": false,
      "inputs": [],
      "name": "build",
      "outputs": [
        {
          "name": "proxy",
          "type": "address"
        }
      ],
      "payable": false,
      "stateMutability": "nonpayable",
      "type": "function"
    },
    {
      "constant": false,
      "inputs": [
        {
          "name": "owner",
          "type": "address"
        }
      ],
      "name": "build",
      "outputs": [
        {
          "name": "proxy",
          "type": "address"
        }
      ],
      "payable": false,
      "stateMutability": "nonpayable",
      "type": "function"
    }
  ],
  "bytecode": "0x606060405261000c610052565b604051809103906000f080151561002257600080fd5b60018054600160a060020a031916600160a060020a0392909216919091179055341561004d57600080fd5b610062565b6040516102af80610d8283390190565b610d11806100716000396000f3006060604052600436106100615763ffffffff7c010000000000000000000000000000000000000000000000000000000060003504166329710388811461006657806360c7d295146100995780638e1a55fc146100c8578063f3701da2146100db575b600080fd5b341561007157600080fd5b610085600160a060020a03600435166100fa565b604051901515815260200160405180910390f35b34156100a457600080fd5b6100ac61010f565b604051600160a060020a03909116815260200160405180910390f35b34156100d357600080fd5b6100ac61011e565b34156100e657600080fd5b6100ac600160a060020a036004351661012e565b60006020819052908152604090205460ff1681565b600154600160a060020a031681565b60006101293361012e565b905090565b600154600090600160a060020a0316610145610264565b600160a060020a039091168152602001604051809103906000f080151561016b57600080fd5b600154909150600160a060020a03808416917f454b0172f64812df0cd504c2bd7df7aab8ff328a54d946b4bd0fa7c527adf9cc91849116604051600160a060020a039283168152911660208201526040908101905180910390a280600160a060020a03166313af4035836040517c010000000000000000000000000000000000000000000000000000000063ffffffff8416028152600160a060020a039091166004820152602401600060405180830381600087803b151561022c57600080fd5b5af1151561023957600080fd5b505050600160a060020a0381166000908152602081905260409020805460ff19166001179055919050565b604051610a71806102758339019056006060604052341561000f57600080fd5b604051602080610a718339810160405280805160018054600160a060020a03191633600160a060020a031690811790915590925090507fce241d7ca1f669fee44b6fc00b8eba2df3bb514eed0f6f668f8f89096e81ed9460405160405180910390a2610087816401000000006105db61009882021704565b151561009257600080fd5b506102a2565b60006100d4337fffffffff000000000000000000000000000000000000000000000000000000008335166401000000006106ad61018a82021704565b15156100df57600080fd5b600435602435808233600160a060020a0316600080357fffffffff00000000000000000000000000000000000000000000000000000000169034903660405183815260406020820181815290820183905260608201848480828437820191505094505050505060405180910390a4600160a060020a038416151561016257600080fd5b60028054600160a060020a038616600160a060020a0319909116179055600192505050919050565b600030600160a060020a031683600160a060020a031614156101ae5750600161029c565b600154600160a060020a03848116911614156101cc5750600161029c565b600054600160a060020a031615156101e65750600061029c565b600054600160a060020a031663b70096138430856040517c010000000000000000000000000000000000000000000000000000000063ffffffff8616028152600160a060020a0393841660048201529190921660248201527fffffffff000000000000000000000000000000000000000000000000000000009091166044820152606401602060405180830381600087803b151561028357600080fd5b5af1151561029057600080fd5b50505060405180519150505b92915050565b6107c0806102b16000396000f3006060604052600436106100745763ffffffff60e060020a60003504166313af403581146100765780631cff79cd146100955780631f6a1eb9146100fb57806360c7d295146101a55780637a9e5e4b146101d45780638da5cb5b146101f3578063948f507614610206578063bf7e214f14610239575b005b341561008157600080fd5b610074600160a060020a036004351661024c565b6100e960048035600160a060020a03169060446024803590810190830135806020601f820181900481020160405190810160405281815292919060208401838380828437509496506102cb95505050505050565b60405190815260200160405180910390f35b61018360046024813581810190830135806020601f8201819004810201604051908101604052818152929190602084018383808284378201915050505050509190803590602001908201803590602001908080601f01602080910402602001604051908101604052818152929190602084018383808284375094965061038d95505050505050565b604051600160a060020a03909216825260208201526040908101905180910390f35b34156101b057600080fd5b6101b861053e565b604051600160a060020a03909116815260200160405180910390f35b34156101df57600080fd5b610074600160a060020a036004351661054d565b34156101fe57600080fd5b6101b86105cc565b341561021157600080fd5b610225600160a060020a03600435166105db565b604051901515815260200160405180910390f35b341561024457600080fd5b6101b861069e565b61026233600035600160e060020a0319166106ad565b151561026d57600080fd5b6001805473ffffffffffffffffffffffffffffffffffffffff1916600160a060020a038381169190911791829055167fce241d7ca1f669fee44b6fc00b8eba2df3bb514eed0f6f668f8f89096e81ed9460405160405180910390a250565b60006102e333600035600160e060020a0319166106ad565b15156102ee57600080fd5b600435602435808233600160a060020a031660008035600160e060020a0319169034903660405183815260406020820181815290820183905260608201848480828437820191505094505050505060405180910390a4600160a060020a038516151561035957600080fd5b60206000855160208701886113885a03f4600051935080156001811461037e57610383565b600080fd5b5050505092915050565b6002546000908190600160a060020a0316638bf4515c856040518263ffffffff1660e060020a0281526004018080602001828103825283818151815260200191508051906020019080838360005b838110156103f35780820151838201526020016103db565b50505050905090810190601f1680156104205780820380516001836020036101000a031916815260200191505b5092505050602060405180830381600087803b151561043e57600080fd5b5af1151561044b57600080fd5b5050506040518051925050600160a060020a038216151561052b57600254600160a060020a0316637ed0c3b2856040518263ffffffff1660e060020a0281526004018080602001828103825283818151815260200191508051906020019080838360005b838110156104c75780820151838201526020016104af565b50505050905090810190601f1680156104f45780820380516001836020036101000a031916815260200191505b5092505050602060405180830381600087803b151561051257600080fd5b5af1151561051f57600080fd5b50505060405180519250505b61053582846102cb565b90509250929050565b600254600160a060020a031681565b61056333600035600160e060020a0319166106ad565b151561056e57600080fd5b6000805473ffffffffffffffffffffffffffffffffffffffff1916600160a060020a038381169190911791829055167f1abebea81bfa2637f28358c371278fb15ede7ea8dd28d2e03b112ff6d936ada460405160405180910390a250565b600154600160a060020a031681565b60006105f333600035600160e060020a0319166106ad565b15156105fe57600080fd5b600435602435808233600160a060020a031660008035600160e060020a0319169034903660405183815260406020820181815290820183905260608201848480828437820191505094505050505060405180910390a4600160a060020a038416151561066957600080fd5b60028054600160a060020a03861673ffffffffffffffffffffffffffffffffffffffff19909116179055600192505050919050565b600054600160a060020a031681565b600030600160a060020a031683600160a060020a031614156106d15750600161078e565b600154600160a060020a03848116911614156106ef5750600161078e565b600054600160a060020a031615156107095750600061078e565b600054600160a060020a031663b700961384308560405160e060020a63ffffffff8616028152600160a060020a039384166004820152919092166024820152600160e060020a03199091166044820152606401602060405180830381600087803b151561077557600080fd5b5af1151561078257600080fd5b50505060405180519150505b929150505600a165627a7a72305820fad038337d655fd7581b4bb300ae1f9d81e0f2d15714e23ac8f88efe28a4648c0029a165627a7a72305820d02de9c64589234e4c83870e4fb5f731e8fbeb8e3e1845770a47f6a6ec466ef900296060604052341561000f57600080fd5b6102918061001e6000396000f30060606040526004361061004b5763ffffffff7c01000000000000000000000000000000000000000000000000000000006000350416637ed0c3b281146100505780638bf4515c146100ca575b600080fd5b341561005b57600080fd5b6100a160046024813581810190830135806020601f8201819004810201604051908101604052818152929190602084018383808284375094965061011b95505050505050565b60405173ffffffffffffffffffffffffffffffffffffffff909116815260200160405180910390f35b34156100d557600080fd5b6100a160046024813581810190830135806020601f820181900481020160405190810160405281815292919060208401838380828437509496506101d995505050505050565b6000808251602084016000f09150813b156001811461004b5750826040518082805190602001908083835b602083106101655780518252601f199092019160209182019101610146565b6001836020036101000a03801982511681845116179092525050509190910192506040915050519081900390206000908152602081905260409020805473ffffffffffffffffffffffffffffffffffffffff191673ffffffffffffffffffffffffffffffffffffffff841617905550919050565b600080826040518082805190602001908083835b6020831061020c5780518252601f1990920191602091820191016101ed565b6001836020036101000a038019825116818451161790925250505091909101925060409150505190819003902060009081526020819052604090205473ffffffffffffffffffffffffffffffffffffffff1693925050505600a165627a7a72305820a2bd847a4c9159301dea77896e306bc2ddd6e631a3fe3fc5a72aba165f7eef750029",
  "source": "// proxy.sol - execute actions atomically through the proxy's identity\n\n// Copyright (C) 2017  DappHub, LLC\n\n// This program is free software: you can redistribute it and/or modify\n// it under the terms of the GNU General Public License as published by\n// the Free Software Foundation, either version 3 of the License, or\n// (at your option) any later version.\n\n// This program is distributed in the hope that it will be useful,\n// but WITHOUT ANY WARRANTY; without even the implied warranty of\n// MERCHANTABILITY or FITNESS FOR A PARTICULAR PURPOSE.  See the\n// GNU General Public License for more details.\n\n// You should have received a copy of the GNU General Public License\n// along with this program.  If not, see <http://www.gnu.org/licenses/>.\n\npragma solidity ^0.4.13;\n\nimport \"../ds-auth/auth.sol\"; \nimport \"../ds-note/note.sol\";\n\n// DSProxy\n// Allows code execution using a persistant identity This can be very\n// useful to execute a sequence of atomic actions. Since the owner of\n// the proxy can be changed, this allows for dynamic ownership models\n// i.e. a multisig\ncontract DSProxy is DSAuth, DSNote {\n    DSProxyCache public cache;  // global cache for contracts\n\n    function DSProxy(address _cacheAddr) public {\n        require(setCache(_cacheAddr));\n    }\n\n    function() public payable {\n    }\n\n    // use the proxy to execute calldata _data on contract _code\n    function execute(bytes _code, bytes _data)\n        public\n        payable\n        returns (address target, bytes32 response)\n    {\n        target = cache.read(_code);\n        if (target == 0x0) {\n            // deploy contract & store its address in cache\n            target = cache.write(_code);\n        }\n\n        response = execute(target, _data);\n    }\n\n    function execute(address _target, bytes _data)\n        public\n        auth\n        note\n        payable\n        returns (bytes32 response)\n    {\n        require(_target != 0x0);\n\n        // call contract in current context\n        assembly {\n            let succeeded := delegatecall(sub(gas, 5000), _target, add(_data, 0x20), mload(_data), 0, 32)\n            response := mload(0)      // load delegatecall output\n            switch iszero(succeeded)\n            case 1 {\n                // throw if delegatecall failed\n                revert(0, 0)\n            }\n        }\n    }\n\n    //set new cache\n    function setCache(address _cacheAddr)\n        public\n        auth\n        note\n        returns (bool)\n    {\n        require(_cacheAddr != 0x0);        // invalid cache address\n        cache = DSProxyCache(_cacheAddr);  // overwrite cache\n        return true;\n    }\n}\n\n// DSProxyFactory\n// This factory deploys new proxy instances through build()\n// Deployed proxy addresses are logged\ncontract DSProxyFactory {\n    event Created(address indexed sender, address proxy, address cache);\n    mapping(address=>bool) public isProxy;\n    DSProxyCache public cache = new DSProxyCache();\n\n    // deploys a new proxy instance\n    // sets owner of proxy to caller\n    function build() public returns (DSProxy proxy) {\n        proxy = build(msg.sender);\n    }\n\n    // deploys a new proxy instance\n    // sets custom owner of proxy\n    function build(address owner) public returns (DSProxy proxy) {\n        proxy = new DSProxy(cache);\n        Created(owner, address(proxy), address(cache));\n        proxy.setOwner(owner);\n        isProxy[proxy] = true;\n    }\n}\n\n// DSProxyCache\n// This global cache stores addresses of contracts previously deployed\n// by a proxy. This saves gas from repeat deployment of the same\n// contracts and eliminates blockchain bloat.\n\n// By default, all proxies deployed from the same factory store\n// contracts in the same cache. The cache a proxy instance uses can be\n// changed.  The cache uses the sha3 hash of a contract's bytecode to\n// lookup the address\ncontract DSProxyCache {\n    mapping(bytes32 => address) cache;\n\n    function read(bytes _code) public view returns (address) {\n        bytes32 hash = keccak256(_code);\n        return cache[hash];\n    }\n\n    function write(bytes _code) public returns (address target) {\n        assembly {\n            target := create(0, add(_code, 0x20), mload(_code))\n            switch iszero(extcodesize(target))\n            case 1 {\n                // throw if contract failed to deploy\n                revert(0, 0)\n            }\n        }\n        bytes32 hash = keccak256(_code);\n        cache[hash] = target;\n    }\n}\n",
  "sourcePath": "/home/paskal/cdper/contracts/lib/ds-proxy/proxy.sol",
  "compiler": {
    "name": "solc",
    "version": "0.4.21+commit.dfe3193c.Emscripten.clang"
  },
  "schemaVersion": "2.0.0",
  "updatedAt": "2018-04-18T02:07:49.811Z"
}