{
  "contractName": "DSThing",
  "abi": [
    {
      "constant": false,
      "inputs": [
        {
          "name": "owner_",
          "type": "address"
        }
      ],
      "name": "setOwner",
      "outputs": [],
      "payable": false,
      "stateMutability": "nonpayable",
      "type": "function"
    },
    {
      "constant": false,
      "inputs": [
        {
          "name": "authority_",
          "type": "address"
        }
      ],
      "name": "setAuthority",
      "outputs": [],
      "payable": false,
      "stateMutability": "nonpayable",
      "type": "function"
    },
    {
      "constant": true,
      "inputs": [],
      "name": "owner",
      "outputs": [
        {
          "name": "",
          "type": "address"
        }
      ],
      "payable": false,
      "stateMutability": "view",
      "type": "function"
    },
    {
      "constant": true,
      "inputs": [],
      "name": "authority",
      "outputs": [
        {
          "name": "",
          "type": "address"
        }
      ],
      "payable": false,
      "stateMutability": "view",
      "type": "function"
    },
    {
      "anonymous": true,
      "inputs": [
        {
          "indexed": true,
          "name": "sig",
          "type": "bytes4"
        },
        {
          "indexed": true,
          "name": "guy",
          "type": "address"
        },
        {
          "indexed": true,
          "name": "foo",
          "type": "bytes32"
        },
        {
          "indexed": true,
          "name": "bar",
          "type": "bytes32"
        },
        {
          "indexed": false,
          "name": "wad",
          "type": "uint256"
        },
        {
          "indexed": false,
          "name": "fax",
          "type": "bytes"
        }
      ],
      "name": "LogNote",
      "type": "event"
    },
    {
      "anonymous": false,
      "inputs": [
        {
          "indexed": true,
          "name": "authority",
          "type": "address"
        }
      ],
      "name": "LogSetAuthority",
      "type": "event"
    },
    {
      "anonymous": false,
      "inputs": [
        {
          "indexed": true,
          "name": "owner",
          "type": "address"
        }
      ],
      "name": "LogSetOwner",
      "type": "event"
    }
  ],
  "bytecode": "0x6060604090815260018054600160a060020a03191633600160a060020a0316908117909155907fce241d7ca1f669fee44b6fc00b8eba2df3bb514eed0f6f668f8f89096e81ed94905160405180910390a261036f8061005f6000396000f3006060604052600436106100615763ffffffff7c010000000000000000000000000000000000000000000000000000000060003504166313af403581146100665780637a9e5e4b146100875780638da5cb5b146100a6578063bf7e214f146100d5575b600080fd5b341561007157600080fd5b610085600160a060020a03600435166100e8565b005b341561009257600080fd5b610085600160a060020a036004351661017c565b34156100b157600080fd5b6100b9610210565b604051600160a060020a03909116815260200160405180910390f35b34156100e057600080fd5b6100b961021f565b610113336000357bffffffffffffffffffffffffffffffffffffffffffffffffffffffff191661022e565b151561011e57600080fd5b6001805473ffffffffffffffffffffffffffffffffffffffff1916600160a060020a038381169190911791829055167fce241d7ca1f669fee44b6fc00b8eba2df3bb514eed0f6f668f8f89096e81ed9460405160405180910390a250565b6101a7336000357bffffffffffffffffffffffffffffffffffffffffffffffffffffffff191661022e565b15156101b257600080fd5b6000805473ffffffffffffffffffffffffffffffffffffffff1916600160a060020a038381169190911791829055167f1abebea81bfa2637f28358c371278fb15ede7ea8dd28d2e03b112ff6d936ada460405160405180910390a250565b600154600160a060020a031681565b600054600160a060020a031681565b600030600160a060020a031683600160a060020a031614156102525750600161033d565b600154600160a060020a03848116911614156102705750600161033d565b600054600160a060020a0316151561028a5750600061033d565b600054600160a060020a031663b70096138430856040517c010000000000000000000000000000000000000000000000000000000063ffffffff8616028152600160a060020a0393841660048201529190921660248201527bffffffffffffffffffffffffffffffffffffffffffffffffffffffff199091166044820152606401602060405180830381600087803b151561032457600080fd5b5af1151561033157600080fd5b50505060405180519150505b929150505600a165627a7a723058201f7eb96b2c97248df9f18ab5d28479266e506428a5c76ac221e996d174e5b96b0029",
  "source": "// thing.sol - `auth` with handy mixins. your things should be DSThings\n\n// Copyright (C) 2017  DappHub, LLC\n\n// This program is free software: you can redistribute it and/or modify\n// it under the terms of the GNU General Public License as published by\n// the Free Software Foundation, either version 3 of the License, or\n// (at your option) any later version.\n\n// This program is distributed in the hope that it will be useful,\n// but WITHOUT ANY WARRANTY; without even the implied warranty of\n// MERCHANTABILITY or FITNESS FOR A PARTICULAR PURPOSE.  See the\n// GNU General Public License for more details.\n\n// You should have received a copy of the GNU General Public License\n// along with this program.  If not, see <http://www.gnu.org/licenses/>.\n\npragma solidity ^0.4.13;\n\nimport '../ds-auth/auth.sol';\nimport '../ds-note/note.sol';\nimport '../ds-math/math.sol';\n\ncontract DSThing is DSAuth, DSNote, DSMath {\n\n    function S(string s) internal pure returns (bytes4) {\n        return bytes4(keccak256(s));\n    }\n\n}",
  "sourcePath": "/home/paskal/cdper/contracts/lib/ds-thing/thing.sol",
  "compiler": {
    "name": "solc",
    "version": "0.4.21+commit.dfe3193c.Emscripten.clang"
  },
  "schemaVersion": "2.0.0",
  "updatedAt": "2018-04-18T11:56:24.886Z"
}