{
  "contractName": "DSToken",
  "abi": [
    {
      "constant": false,
      "inputs": [],
      "name": "stop",
      "outputs": [],
      "payable": false,
      "stateMutability": "nonpayable",
      "type": "function"
    },
    {
      "constant": false,
      "inputs": [
        {
          "name": "owner_",
          "type": "address"
        }
      ],
      "name": "setOwner",
      "outputs": [],
      "payable": false,
      "stateMutability": "nonpayable",
      "type": "function"
    },
    {
      "constant": true,
      "inputs": [],
      "name": "totalSupply",
      "outputs": [
        {
          "name": "",
          "type": "uint256"
        }
      ],
      "payable": false,
      "stateMutability": "view",
      "type": "function"
    },
    {
      "constant": true,
      "inputs": [],
      "name": "decimals",
      "outputs": [
        {
          "name": "",
          "type": "uint256"
        }
      ],
      "payable": false,
      "stateMutability": "view",
      "type": "function"
    },
    {
      "constant": true,
      "inputs": [
        {
          "name": "src",
          "type": "address"
        }
      ],
      "name": "balanceOf",
      "outputs": [
        {
          "name": "",
          "type": "uint256"
        }
      ],
      "payable": false,
      "stateMutability": "view",
      "type": "function"
    },
    {
      "constant": true,
      "inputs": [],
      "name": "stopped",
      "outputs": [
        {
          "name": "",
          "type": "bool"
        }
      ],
      "payable": false,
      "stateMutability": "view",
      "type": "function"
    },
    {
      "constant": false,
      "inputs": [
        {
          "name": "authority_",
          "type": "address"
        }
      ],
      "name": "setAuthority",
      "outputs": [],
      "payable": false,
      "stateMutability": "nonpayable",
      "type": "function"
    },
    {
      "constant": true,
      "inputs": [],
      "name": "owner",
      "outputs": [
        {
          "name": "",
          "type": "address"
        }
      ],
      "payable": false,
      "stateMutability": "view",
      "type": "function"
    },
    {
      "constant": true,
      "inputs": [],
      "name": "symbol",
      "outputs": [
        {
          "name": "",
          "type": "string"
        }
      ],
      "payable": false,
      "stateMutability": "view",
      "type": "function"
    },
    {
      "constant": false,
      "inputs": [
        {
          "name": "dst",
          "type": "address"
        },
        {
          "name": "wad",
          "type": "uint256"
        }
      ],
      "name": "transfer",
      "outputs": [
        {
          "name": "",
          "type": "bool"
        }
      ],
      "payable": false,
      "stateMutability": "nonpayable",
      "type": "function"
    },
    {
      "constant": false,
      "inputs": [],
      "name": "start",
      "outputs": [],
      "payable": false,
      "stateMutability": "nonpayable",
      "type": "function"
    },
    {
      "constant": true,
      "inputs": [],
      "name": "authority",
      "outputs": [
        {
          "name": "",
          "type": "address"
        }
      ],
      "payable": false,
      "stateMutability": "view",
      "type": "function"
    },
    {
      "constant": true,
      "inputs": [
        {
          "name": "src",
          "type": "address"
        },
        {
          "name": "guy",
          "type": "address"
        }
      ],
      "name": "allowance",
      "outputs": [
        {
          "name": "",
          "type": "uint256"
        }
      ],
      "payable": false,
      "stateMutability": "view",
      "type": "function"
    },
    {
      "inputs": [
        {
          "name": "symbol_",
          "type": "string"
        }
      ],
      "payable": false,
      "stateMutability": "nonpayable",
      "type": "constructor"
    },
    {
      "anonymous": false,
      "inputs": [
        {
          "indexed": true,
          "name": "guy",
          "type": "address"
        },
        {
          "indexed": false,
          "name": "wad",
          "type": "uint256"
        }
      ],
      "name": "Mint",
      "type": "event"
    },
    {
      "anonymous": false,
      "inputs": [
        {
          "indexed": true,
          "name": "guy",
          "type": "address"
        },
        {
          "indexed": false,
          "name": "wad",
          "type": "uint256"
        }
      ],
      "name": "Burn",
      "type": "event"
    },
    {
      "anonymous": false,
      "inputs": [
        {
          "indexed": true,
          "name": "authority",
          "type": "address"
        }
      ],
      "name": "LogSetAuthority",
      "type": "event"
    },
    {
      "anonymous": false,
      "inputs": [
        {
          "indexed": true,
          "name": "owner",
          "type": "address"
        }
      ],
      "name": "LogSetOwner",
      "type": "event"
    },
    {
      "anonymous": true,
      "inputs": [
        {
          "indexed": true,
          "name": "sig",
          "type": "bytes4"
        },
        {
          "indexed": true,
          "name": "guy",
          "type": "address"
        },
        {
          "indexed": true,
          "name": "foo",
          "type": "bytes32"
        },
        {
          "indexed": true,
          "name": "bar",
          "type": "bytes32"
        },
        {
          "indexed": false,
          "name": "wad",
          "type": "uint256"
        },
        {
          "indexed": false,
          "name": "fax",
          "type": "bytes"
        }
      ],
      "name": "LogNote",
      "type": "event"
    },
    {
      "anonymous": false,
      "inputs": [
        {
          "indexed": true,
          "name": "from",
          "type": "address"
        },
        {
          "indexed": true,
          "name": "to",
          "type": "address"
        },
        {
          "indexed": false,
          "name": "tokens",
          "type": "uint256"
        }
      ],
      "name": "Transfer",
      "type": "event"
    },
    {
      "anonymous": false,
      "inputs": [
        {
          "indexed": true,
          "name": "tokenOwner",
          "type": "address"
        },
        {
          "indexed": true,
          "name": "spender",
          "type": "address"
        },
        {
          "indexed": false,
          "name": "tokens",
          "type": "uint256"
        }
      ],
      "name": "Approval",
      "type": "event"
    },
    {
      "constant": false,
      "inputs": [
        {
          "name": "guy",
          "type": "address"
        },
        {
          "name": "wad",
          "type": "uint256"
        }
      ],
      "name": "approve",
      "outputs": [
        {
          "name": "",
          "type": "bool"
        }
      ],
      "payable": false,
      "stateMutability": "nonpayable",
      "type": "function"
    },
    {
      "constant": false,
      "inputs": [
        {
          "name": "guy",
          "type": "address"
        }
      ],
      "name": "approve",
      "outputs": [
        {
          "name": "",
          "type": "bool"
        }
      ],
      "payable": false,
      "stateMutability": "nonpayable",
      "type": "function"
    },
    {
      "constant": false,
      "inputs": [
        {
          "name": "src",
          "type": "address"
        },
        {
          "name": "dst",
          "type": "address"
        },
        {
          "name": "wad",
          "type": "uint256"
        }
      ],
      "name": "transferFrom",
      "outputs": [
        {
          "name": "",
          "type": "bool"
        }
      ],
      "payable": false,
      "stateMutability": "nonpayable",
      "type": "function"
    },
    {
      "constant": false,
      "inputs": [
        {
          "name": "dst",
          "type": "address"
        },
        {
          "name": "wad",
          "type": "uint256"
        }
      ],
      "name": "push",
      "outputs": [],
      "payable": false,
      "stateMutability": "nonpayable",
      "type": "function"
    },
    {
      "constant": false,
      "inputs": [
        {
          "name": "src",
          "type": "address"
        },
        {
          "name": "wad",
          "type": "uint256"
        }
      ],
      "name": "pull",
      "outputs": [],
      "payable": false,
      "stateMutability": "nonpayable",
      "type": "function"
    },
    {
      "constant": false,
      "inputs": [
        {
          "name": "src",
          "type": "address"
        },
        {
          "name": "dst",
          "type": "address"
        },
        {
          "name": "wad",
          "type": "uint256"
        }
      ],
      "name": "move",
      "outputs": [],
      "payable": false,
      "stateMutability": "nonpayable",
      "type": "function"
    },
    {
      "constant": false,
      "inputs": [
        {
          "name": "guy",
          "type": "address"
        },
        {
          "name": "wad",
          "type": "uint256"
        }
      ],
      "name": "mint",
      "outputs": [],
      "payable": false,
      "stateMutability": "nonpayable",
      "type": "function"
    },
    {
      "constant": false,
      "inputs": [
        {
          "name": "wad",
          "type": "uint256"
        }
      ],
      "name": "mint",
      "outputs": [],
      "payable": false,
      "stateMutability": "nonpayable",
      "type": "function"
    },
    {
      "constant": false,
      "inputs": [
        {
          "name": "guy",
          "type": "address"
        },
        {
          "name": "wad",
          "type": "uint256"
        }
      ],
      "name": "burn",
      "outputs": [],
      "payable": false,
      "stateMutability": "nonpayable",
      "type": "function"
    },
    {
      "constant": false,
      "inputs": [
        {
          "name": "wad",
          "type": "uint256"
        }
      ],
      "name": "burn",
      "outputs": [],
      "payable": false,
      "stateMutability": "nonpayable",
      "type": "function"
    },
    {
      "constant": false,
      "inputs": [
        {
          "name": "name_",
          "type": "string"
        }
      ],
      "name": "setName",
      "outputs": [],
      "payable": false,
      "stateMutability": "nonpayable",
      "type": "function"
    }
  ],
  "bytecode": "0x60606040526012600655602060405190810160405260008152600790805161002b9291602001906100cc565b50341561003757600080fd5b6040516200106e3803806200106e83398101604052808051600160a060020a03331660008181526001602052604080822082905590805560048054600160a060020a03191683179055919093019291507fce241d7ca1f669fee44b6fc00b8eba2df3bb514eed0f6f668f8f89096e81ed94905160405180910390a260058180516100c59291602001906100cc565b5050610167565b828054600181600116156101000203166002900490600052602060002090601f016020900481019282601f1061010d57805160ff191683800117855561013a565b8280016001018555821561013a579182015b8281111561013a57825182559160200191906001019061011f565b5061014692915061014a565b5090565b61016491905b808211156101465760008155600101610150565b90565b610ef780620001776000396000f30060606040526004361061013d5763ffffffff7c010000000000000000000000000000000000000000000000000000000060003504166307da68f58114610142578063095ea7b31461015757806313af40351461018d57806318160ddd146101ac57806323b872dd146101d1578063313ce567146101f957806340c10f191461020c57806342966c681461022e57806370a082311461024457806375f12b21146102635780637a9e5e4b146102765780638da5cb5b1461029557806395d89b41146102c45780639dc29fac1461034e578063a0712d6814610370578063a9059cbb14610386578063b753a98c146103a8578063bb35783b146103ca578063be9a6555146103f2578063bf7e214f14610405578063c47f002714610418578063daea85c514610469578063dd62ed3e14610488578063f2d5d56b146104ad575b600080fd5b341561014d57600080fd5b6101556104cf565b005b341561016257600080fd5b610179600160a060020a036004351660243561056e565b604051901515815260200160405180910390f35b341561019857600080fd5b610155600160a060020a036004351661059b565b34156101b757600080fd5b6101bf61061a565b60405190815260200160405180910390f35b34156101dc57600080fd5b610179600160a060020a0360043581169060243516604435610621565b341561020457600080fd5b6101bf610796565b341561021757600080fd5b610155600160a060020a036004351660243561079c565b341561023957600080fd5b610155600435610862565b341561024f57600080fd5b6101bf600160a060020a036004351661086f565b341561026e57600080fd5b61017961088a565b341561028157600080fd5b610155600160a060020a036004351661089a565b34156102a057600080fd5b6102a8610919565b604051600160a060020a03909116815260200160405180910390f35b34156102cf57600080fd5b6102d7610928565b60405160208082528190810183818151815260200191508051906020019080838360005b838110156103135780820151838201526020016102fb565b50505050905090810190601f1680156103405780820380516001836020036101000a031916815260200191505b509250505060405180910390f35b341561035957600080fd5b610155600160a060020a03600435166024356109c6565b341561037b57600080fd5b610155600435610b34565b341561039157600080fd5b610179600160a060020a0360043516602435610b3e565b34156103b357600080fd5b610155600160a060020a0360043516602435610b4b565b34156103d557600080fd5b610155600160a060020a0360043581169060243516604435610b5b565b34156103fd57600080fd5b610155610b6c565b341561041057600080fd5b6102a8610c05565b341561042357600080fd5b61015560046024813581810190830135806020601f82018190048102016040519081016040528181529291906020840183838082843750949650610c1495505050505050565b341561047457600080fd5b610179600160a060020a0360043516610c4c565b341561049357600080fd5b6101bf600160a060020a0360043581169060243516610c72565b34156104b857600080fd5b610155600160a060020a0360043516602435610c9d565b6104e533600035600160e060020a031916610ca8565b15156104f057600080fd5b600435602435808233600160a060020a031660008035600160e060020a0319169034903660405183815260406020820181815290820183905260608201848480828437820191505094505050505060405180910390a450506004805474ff0000000000000000000000000000000000000000191660a060020a179055565b60045460009060a060020a900460ff161561058857600080fd5b6105928383610da7565b90505b92915050565b6105b133600035600160e060020a031916610ca8565b15156105bc57600080fd5b6004805473ffffffffffffffffffffffffffffffffffffffff1916600160a060020a038381169190911791829055167fce241d7ca1f669fee44b6fc00b8eba2df3bb514eed0f6f668f8f89096e81ed9460405160405180910390a250565b6000545b90565b60045460009060a060020a900460ff161561063b57600080fd5b33600160a060020a031684600160a060020a0316141580156106855750600160a060020a038085166000908152600260209081526040808320339094168352929052205460001914155b156106e357600160a060020a03808516600090815260026020908152604080832033909416835292905220546106bb9083610e13565b600160a060020a03808616600090815260026020908152604080832033909416835292905220555b600160a060020a0384166000908152600160205260409020546107069083610e13565b600160a060020a0380861660009081526001602052604080822093909355908516815220546107359083610e23565b600160a060020a03808516600081815260016020526040908190209390935591908616907fddf252ad1be2c89b69c2b068fc378daa952ba7f163c4a11628f55a4df523b3ef9085905190815260200160405180910390a35060019392505050565b60065481565b6107b233600035600160e060020a031916610ca8565b15156107bd57600080fd5b60045460a060020a900460ff16156107d457600080fd5b600160a060020a0382166000908152600160205260409020546107f79082610e23565b600160a060020a0383166000908152600160205260408120919091555461081e9082610e23565b600055600160a060020a0382167f0f6798a560793a54c3bcfe86a93cde1e73087d944c0ea20544137d41213968858260405190815260200160405180910390a25050565b61086c33826109c6565b50565b600160a060020a031660009081526001602052604090205490565b60045460a060020a900460ff1681565b6108b033600035600160e060020a031916610ca8565b15156108bb57600080fd5b6003805473ffffffffffffffffffffffffffffffffffffffff1916600160a060020a038381169190911791829055167f1abebea81bfa2637f28358c371278fb15ede7ea8dd28d2e03b112ff6d936ada460405160405180910390a250565b600454600160a060020a031681565b60058054600181600116156101000203166002900480601f0160208091040260200160405190810160405280929190818152602001828054600181600116156101000203166002900480156109be5780601f10610993576101008083540402835291602001916109be565b820191906000526020600020905b8154815290600101906020018083116109a157829003601f168201915b505050505081565b6109dc33600035600160e060020a031916610ca8565b15156109e757600080fd5b60045460a060020a900460ff16156109fe57600080fd5b33600160a060020a031682600160a060020a031614158015610a485750600160a060020a038083166000908152600260209081526040808320339094168352929052205460001914155b15610aa657600160a060020a0380831660009081526002602090815260408083203390941683529290522054610a7e9082610e13565b600160a060020a03808416600090815260026020908152604080832033909416835292905220555b600160a060020a038216600090815260016020526040902054610ac99082610e13565b600160a060020a03831660009081526001602052604081209190915554610af09082610e13565b600055600160a060020a0382167fcc16f5dbb4873280815c1ee09dbd06736cffcc184412cf7a71a0fdb75d397ca58260405190815260200160405180910390a25050565b61086c338261079c565b6000610592338484610621565b610b56338383610621565b505050565b610b66838383610621565b50505050565b610b8233600035600160e060020a031916610ca8565b1515610b8d57600080fd5b600435602435808233600160a060020a031660008035600160e060020a0319169034903660405183815260406020820181815290820183905260608201848480828437820191505094505050505060405180910390a450506004805474ff000000000000000000000000000000000000000019169055565b600354600160a060020a031681565b610c2a33600035600160e060020a031916610ca8565b1515610c3557600080fd5b6007818051610c48929160200190610e33565b5050565b60045460009060a060020a900460ff1615610c6657600080fd5b61059582600019610da7565b600160a060020a03918216600090815260026020908152604080832093909416825291909152205490565b610b56823383610621565b600030600160a060020a031683600160a060020a03161415610ccc57506001610595565b600454600160a060020a0384811691161415610cea57506001610595565b600354600160a060020a03161515610d0457506000610595565b600354600160a060020a031663b70096138430856040517c010000000000000000000000000000000000000000000000000000000063ffffffff8616028152600160a060020a039384166004820152919092166024820152600160e060020a03199091166044820152606401602060405180830381600087803b1515610d8957600080fd5b5af11515610d9657600080fd5b505050604051805190509050610595565b600160a060020a03338116600081815260026020908152604080832094871680845294909152808220859055909291907f8c5be1e5ebec7d5bd14f71427d1e84f3dd0314c0f7b2291e5b200ac8c7c3b9259085905190815260200160405180910390a350600192915050565b8082038281111561059557600080fd5b8082018281101561059557600080fd5b828054600181600116156101000203166002900490600052602060002090601f016020900481019282601f10610e7457805160ff1916838001178555610ea1565b82800160010185558215610ea1579182015b82811115610ea1578251825591602001919060010190610e86565b50610ead929150610eb1565b5090565b61061e91905b80821115610ead5760008155600101610eb75600a165627a7a723058204a4f3b8ed03ac316ffabc09a3b20a92318ffe2b9529a5f5b7c1fa121877dfe750029",
  "source": "/// token.sol -- ERC20 implementation with minting and burning\n\n// Copyright (C) 2015, 2016, 2017  DappHub, LLC\n\n// This program is free software: you can redistribute it and/or modify\n// it under the terms of the GNU General Public License as published by\n// the Free Software Foundation, either version 3 of the License, or\n// (at your option) any later version.\n\n// This program is distributed in the hope that it will be useful,\n// but WITHOUT ANY WARRANTY; without even the implied warranty of\n// MERCHANTABILITY or FITNESS FOR A PARTICULAR PURPOSE.  See the\n// GNU General Public License for more details.\n\n// You should have received a copy of the GNU General Public License\n// along with this program.  If not, see <http://www.gnu.org/licenses/>.\n\npragma solidity ^0.4.13;\n\nimport \"../ds-stop/stop.sol\";\n\nimport \"./base.sol\";\n\ncontract DSToken is DSTokenBase(0), DSStop {\n\n    string  public  symbol;\n    uint256  public  decimals = 18; // standard token precision. override to customize\n\n    function DSToken(string symbol_) public {\n        symbol = symbol_;\n    }\n\n    event Mint(address indexed guy, uint wad);\n    event Burn(address indexed guy, uint wad);\n\n    function approve(address guy) public stoppable returns (bool) {\n        return super.approve(guy, uint(-1));\n    }\n\n    function approve(address guy, uint wad) public stoppable returns (bool) {\n        return super.approve(guy, wad);\n    }\n\n    function transferFrom(address src, address dst, uint wad)\n        public\n        stoppable\n        returns (bool)\n    {\n        if (src != msg.sender && _approvals[src][msg.sender] != uint(-1)) {\n            _approvals[src][msg.sender] = sub(_approvals[src][msg.sender], wad);\n        }\n\n        _balances[src] = sub(_balances[src], wad);\n        _balances[dst] = add(_balances[dst], wad);\n\n        Transfer(src, dst, wad);\n\n        return true;\n    }\n\n    function push(address dst, uint wad) public {\n        transferFrom(msg.sender, dst, wad);\n    }\n    function pull(address src, uint wad) public {\n        transferFrom(src, msg.sender, wad);\n    }\n    function move(address src, address dst, uint wad) public {\n        transferFrom(src, dst, wad);\n    }\n\n    function mint(uint wad) public {\n        mint(msg.sender, wad);\n    }\n    function burn(uint wad) public {\n        burn(msg.sender, wad);\n    }\n    function mint(address guy, uint wad) public auth stoppable {\n        _balances[guy] = add(_balances[guy], wad);\n        _supply = add(_supply, wad);\n        Mint(guy, wad);\n    }\n    function burn(address guy, uint wad) public auth stoppable {\n        if (guy != msg.sender && _approvals[guy][msg.sender] != uint(-1)) {\n            _approvals[guy][msg.sender] = sub(_approvals[guy][msg.sender], wad);\n        }\n\n        _balances[guy] = sub(_balances[guy], wad);\n        _supply = sub(_supply, wad);\n        Burn(guy, wad);\n    }\n\n    // Optional token name\n    string  name = \"\";\n\n    function setName(string name_) public auth {\n        name = name_;\n    }\n}\n",
  "sourcePath": "/home/paskal/cdper/contracts/lib/ds-token/token.sol",
  "compiler": {
    "name": "solc",
    "version": "0.4.21+commit.dfe3193c.Emscripten.clang"
  },
  "schemaVersion": "2.0.0",
  "updatedAt": "2018-04-18T13:36:30.616Z"
}